{"abi":[{"type":"constructor","inputs":[{"name":"_creationFee","type":"uint256","internalType":"uint256"},{"name":"_feeToken","type":"address","internalType":"address"},{"name":"_housePercentage","type":"uint256","internalType":"uint256"},{"name":"_houseAddress","type":"address","internalType":"address"}],"stateMutability":"nonpayable"},{"type":"function","name":"BASIS_POINTS","inputs":[],"outputs":[{"name":"","type":"uint256","internalType":"uint256"}],"stateMutability":"view"},{"type":"function","name":"LOCKER_ROLE","inputs":[],"outputs":[{"name":"","type":"bytes32","internalType":"bytes32"}],"stateMutability":"view"},{"type":"function","name":"VESTER_ROLE","inputs":[],"outputs":[{"name":"","type":"bytes32","internalType":"bytes32"}],"stateMutability":"view"},{"type":"function","name":"calculateTotalTokensNeededForPresale","inputs":[{"name":"_options","type":"tuple","internalType":"struct Presale.PresaleOptions","components":[{"name":"tokenDeposit","type":"uint256","internalType":"uint256"},{"name":"hardCap","type":"uint256","internalType":"uint256"},{"name":"softCap","type":"uint256","internalType":"uint256"},{"name":"min","type":"uint256","internalType":"uint256"},{"name":"max","type":"uint256","internalType":"uint256"},{"name":"presaleRate","type":"uint256","internalType":"uint256"},{"name":"listingRate","type":"uint256","internalType":"uint256"},{"name":"liquidityBps","type":"uint256","internalType":"uint256"},{"name":"slippageBps","type":"uint256","internalType":"uint256"},{"name":"start","type":"uint256","internalType":"uint256"},{"name":"end","type":"uint256","internalType":"uint256"},{"name":"lockupDuration","type":"uint256","internalType":"uint256"},{"name":"vestingPercentage","type":"uint256","internalType":"uint256"},{"name":"vestingDuration","type":"uint256","internalType":"uint256"},{"name":"leftoverTokenOption","type":"uint256","internalType":"uint256"},{"name":"currency","type":"address","internalType":"address"}]},{"name":"_token","type":"address","internalType":"address"}],"outputs":[{"name":"totalTokensNeeded","type":"uint256","internalType":"uint256"}],"stateMutability":"view"},{"type":"function","name":"createPresale","inputs":[{"name":"_options","type":"tuple","internalType":"struct Presale.PresaleOptions","components":[{"name":"tokenDeposit","type":"uint256","internalType":"uint256"},{"name":"hardCap","type":"uint256","internalType":"uint256"},{"name":"softCap","type":"uint256","internalType":"uint256"},{"name":"min","type":"uint256","internalType":"uint256"},{"name":"max","type":"uint256","internalType":"uint256"},{"name":"presaleRate","type":"uint256","internalType":"uint256"},{"name":"listingRate","type":"uint256","internalType":"uint256"},{"name":"liquidityBps","type":"uint256","internalType":"uint256"},{"name":"slippageBps","type":"uint256","internalType":"uint256"},{"name":"start","type":"uint256","internalType":"uint256"},{"name":"end","type":"uint256","internalType":"uint256"},{"name":"lockupDuration","type":"uint256","internalType":"uint256"},{"name":"vestingPercentage","type":"uint256","internalType":"uint256"},{"name":"vestingDuration","type":"uint256","internalType":"uint256"},{"name":"leftoverTokenOption","type":"uint256","internalType":"uint256"},{"name":"currency","type":"address","internalType":"address"}]},{"name":"_token","type":"address","internalType":"address"},{"name":"_weth","type":"address","internalType":"address"},{"name":"_uniswapV2Router02","type":"address","internalType":"address"}],"outputs":[{"name":"presaleAddress","type":"address","internalType":"address"}],"stateMutability":"payable"},{"type":"function","name":"createdPresales","inputs":[{"name":"","type":"uint256","internalType":"uint256"}],"outputs":[{"name":"","type":"address","internalType":"address"}],"stateMutability":"view"},{"type":"function","name":"creationFee","inputs":[],"outputs":[{"name":"","type":"uint256","internalType":"uint256"}],"stateMutability":"view"},{"type":"function","name":"feeToken","inputs":[],"outputs":[{"name":"","type":"address","internalType":"address"}],"stateMutability":"view"},{"type":"function","name":"getAllPresales","inputs":[],"outputs":[{"name":"","type":"address[]","internalType":"address[]"}],"stateMutability":"view"},{"type":"function","name":"getCreationFee","inputs":[],"outputs":[{"name":"","type":"uint256","internalType":"uint256"}],"stateMutability":"view"},{"type":"function","name":"getHouseAddress","inputs":[],"outputs":[{"name":"","type":"address","internalType":"address"}],"stateMutability":"view"},{"type":"function","name":"getHousePercentage","inputs":[],"outputs":[{"name":"","type":"uint256","internalType":"uint256"}],"stateMutability":"view"},{"type":"function","name":"getPresaleAt","inputs":[{"name":"index","type":"uint256","internalType":"uint256"}],"outputs":[{"name":"","type":"address","internalType":"address"}],"stateMutability":"view"},{"type":"function","name":"getPresaleCount","inputs":[],"outputs":[{"name":"","type":"uint256","internalType":"uint256"}],"stateMutability":"view"},{"type":"function","name":"getPresaleOptionsByAddress","inputs":[{"name":"_presaleAddress","type":"address","internalType":"address"}],"outputs":[{"name":"options","type":"tuple","internalType":"struct Presale.PresaleOptions","components":[{"name":"tokenDeposit","type":"uint256","internalType":"uint256"},{"name":"hardCap","type":"uint256","internalType":"uint256"},{"name":"softCap","type":"uint256","internalType":"uint256"},{"name":"min","type":"uint256","internalType":"uint256"},{"name":"max","type":"uint256","internalType":"uint256"},{"name":"presaleRate","type":"uint256","internalType":"uint256"},{"name":"listingRate","type":"uint256","internalType":"uint256"},{"name":"liquidityBps","type":"uint256","internalType":"uint256"},{"name":"slippageBps","type":"uint256","internalType":"uint256"},{"name":"start","type":"uint256","internalType":"uint256"},{"name":"end","type":"uint256","internalType":"uint256"},{"name":"lockupDuration","type":"uint256","internalType":"uint256"},{"name":"vestingPercentage","type":"uint256","internalType":"uint256"},{"name":"vestingDuration","type":"uint256","internalType":"uint256"},{"name":"leftoverTokenOption","type":"uint256","internalType":"uint256"},{"name":"currency","type":"address","internalType":"address"}]}],"stateMutability":"view"},{"type":"function","name":"houseAddress","inputs":[],"outputs":[{"name":"","type":"address","internalType":"address"}],"stateMutability":"view"},{"type":"function","name":"housePercentage","inputs":[],"outputs":[{"name":"","type":"uint256","internalType":"uint256"}],"stateMutability":"view"},{"type":"function","name":"liquidityLocker","inputs":[],"outputs":[{"name":"","type":"address","internalType":"contract LiquidityLocker"}],"stateMutability":"view"},{"type":"function","name":"owner","inputs":[],"outputs":[{"name":"","type":"address","internalType":"address"}],"stateMutability":"view"},{"type":"function","name":"presaleConfigurations","inputs":[{"name":"","type":"address","internalType":"address"}],"outputs":[{"name":"tokenDeposit","type":"uint256","internalType":"uint256"},{"name":"hardCap","type":"uint256","internalType":"uint256"},{"name":"softCap","type":"uint256","internalType":"uint256"},{"name":"min","type":"uint256","internalType":"uint256"},{"name":"max","type":"uint256","internalType":"uint256"},{"name":"presaleRate","type":"uint256","internalType":"uint256"},{"name":"listingRate","type":"uint256","internalType":"uint256"},{"name":"liquidityBps","type":"uint256","internalType":"uint256"},{"name":"slippageBps","type":"uint256","internalType":"uint256"},{"name":"start","type":"uint256","internalType":"uint256"},{"name":"end","type":"uint256","internalType":"uint256"},{"name":"lockupDuration","type":"uint256","internalType":"uint256"},{"name":"vestingPercentage","type":"uint256","internalType":"uint256"},{"name":"vestingDuration","type":"uint256","internalType":"uint256"},{"name":"leftoverTokenOption","type":"uint256","internalType":"uint256"},{"name":"currency","type":"address","internalType":"address"}],"stateMutability":"view"},{"type":"function","name":"renounceOwnership","inputs":[],"outputs":[],"stateMutability":"nonpayable"},{"type":"function","name":"setFeeConfiguration","inputs":[{"name":"_newCreationFee","type":"uint256","internalType":"uint256"},{"name":"_newFeeToken","type":"address","internalType":"address"}],"outputs":[],"stateMutability":"nonpayable"},{"type":"function","name":"transferOwnership","inputs":[{"name":"newOwner","type":"address","internalType":"address"}],"outputs":[],"stateMutability":"nonpayable"},{"type":"function","name":"vestingContract","inputs":[],"outputs":[{"name":"","type":"address","internalType":"contract Vesting"}],"stateMutability":"view"},{"type":"function","name":"withdrawFees","inputs":[],"outputs":[],"stateMutability":"nonpayable"},{"type":"event","name":"FeeConfigurationChanged","inputs":[{"name":"newCreationFee","type":"uint256","indexed":false,"internalType":"uint256"},{"name":"newFeeToken","type":"address","indexed":false,"internalType":"address"}],"anonymous":false},{"type":"event","name":"OwnershipTransferred","inputs":[{"name":"previousOwner","type":"address","indexed":true,"internalType":"address"},{"name":"newOwner","type":"address","indexed":true,"internalType":"address"}],"anonymous":false},{"type":"event","name":"PresaleConfiguration","inputs":[{"name":"options","type":"tuple","indexed":true,"internalType":"struct Presale.PresaleOptions","components":[{"name":"tokenDeposit","type":"uint256","internalType":"uint256"},{"name":"hardCap","type":"uint256","internalType":"uint256"},{"name":"softCap","type":"uint256","internalType":"uint256"},{"name":"min","type":"uint256","internalType":"uint256"},{"name":"max","type":"uint256","internalType":"uint256"},{"name":"presaleRate","type":"uint256","internalType":"uint256"},{"name":"listingRate","type":"uint256","internalType":"uint256"},{"name":"liquidityBps","type":"uint256","internalType":"uint256"},{"name":"slippageBps","type":"uint256","internalType":"uint256"},{"name":"start","type":"uint256","internalType":"uint256"},{"name":"end","type":"uint256","internalType":"uint256"},{"name":"lockupDuration","type":"uint256","internalType":"uint256"},{"name":"vestingPercentage","type":"uint256","internalType":"uint256"},{"name":"vestingDuration","type":"uint256","internalType":"uint256"},{"name":"leftoverTokenOption","type":"uint256","internalType":"uint256"},{"name":"currency","type":"address","internalType":"address"}]}],"anonymous":false},{"type":"event","name":"PresaleCreated","inputs":[{"name":"creator","type":"address","indexed":true,"internalType":"address"},{"name":"presaleContract","type":"address","indexed":true,"internalType":"address"},{"name":"token","type":"address","indexed":true,"internalType":"address"},{"name":"start","type":"uint256","indexed":false,"internalType":"uint256"},{"name":"end","type":"uint256","indexed":false,"internalType":"uint256"}],"anonymous":false},{"type":"error","name":"FeePaymentFailed","inputs":[]},{"type":"error","name":"IndexOutOfBounds","inputs":[]},{"type":"error","name":"InvalidCapSettings","inputs":[]},{"type":"error","name":"InvalidCurrencyDecimals","inputs":[]},{"type":"error","name":"InvalidFeeConfiguration","inputs":[]},{"type":"error","name":"InvalidHouseConfiguration","inputs":[]},{"type":"error","name":"NotAPresaleContract","inputs":[]},{"type":"error","name":"OwnableInvalidOwner","inputs":[{"name":"owner","type":"address","internalType":"address"}]},{"type":"error","name":"OwnableUnauthorizedAccount","inputs":[{"name":"account","type":"address","internalType":"address"}]},{"type":"error","name":"RoleGrantFailed","inputs":[]},{"type":"error","name":"SafeERC20FailedOperation","inputs":[{"name":"token","type":"address","internalType":"address"}]},{"type":"error","name":"ZeroAddress","inputs":[]}],"bytecode":{"object":"0x610100346101f257601f616a4238819003918201601f19168301916001600160401b038311848410176101ae578084926080946040528339810103126101f257805161004d602083016101f6565b9161005f6060604083015192016101f6565b9133156101df575f8054336001600160a01b0319821681178355604051969290916001600160a01b0316907f8be0079c531659141344cd1fd0a4f28419497f9722a3daafe3b4186f6b6457e09080a36001600160a01b031690816101da575b6101f483116101c2576001600160a01b03841615806101d1575b6101c257600155600280546001600160a01b03191691909117905560c05260e052610a3b8181016001600160401b038111838210176101ae578291614f20833903905ff080156101a3576080526040516110e78082016001600160401b038111838210176101ae57829161595b833903905ff080156101a35760a052604051614d15908161020b82396080518181816105f20152610a12015260a05181818161070d0152610a3d015260c051818181610ac301526110a1015260e051818181610af2015261110f0152f35b6040513d5f823e3d90fd5b634e487b7160e01b5f52604160045260245ffd5b6362c9b89160e11b5f5260045ffd5b508215156100d8565b6100be565b631e4fbdf760e01b5f525f60045260245ffd5b5f80fd5b51906001600160a01b03821682036101f25756fe60a06040526004361015610011575f80fd5b5f5f3560e01c80630b4d793c1461098b5780631be06f6314610957578063476343ee1461084257806349d2e2771461063c57806359e7412b146107315780635e6f6045146106ed57806362e6b3a9146106ba578063647846a514610693578063715018a6146106415780637ef97d731461063c5780638da5cb5b1461061657806392144b62146105405780639759164a146105d2578063a725976714610580578063ae5ad22714610545578063d7cee31e14610540578063db07b68e14610522578063dce0b4e414610522578063defbdb8314610504578063e1f1c4a7146104e7578063e5013c3d1461036a578063ea9160dd146102a2578063f2fde38b1461020f578063f3621367146101d45763fae859271461012d575f80fd5b346101d15760403660031901126101d1576004356024356001600160a01b038116908181036101cf5761015e6113e5565b816101ae575b50816040917f4cd68e04e888ae02296b686261dd66226ff1d60291837212646f8e05727d594593600155806001600160a01b0319600254161760025582519182526020820152a180f35b3b63ffffffff16156101c0575f610164565b63d92e233d60e01b8352600483fd5b835b80fd5b50346101d157806003193601126101d15760206040517faf9a8bb3cbd6b84fbccefa71ff73e26e798553c6914585a84886212a46a902798152f35b50346101d15760203660031901126101d1576001600160a01b03610231610f08565b6102396113e5565b16801561028e57815473ffffffffffffffffffffffffffffffffffffffff198116821783556001600160a01b03167f8be0079c531659141344cd1fd0a4f28419497f9722a3daafe3b4186f6b6457e08380a380f35b631e4fbdf760e01b82526004829052602482fd5b50346101d157806003193601126101d15760405180602060035491828152018091600385527fc2575a0e9e593c00f959f8c92f12db2869c3395a3b0502d05e2516446f71f85b90855b81811061034b5750505082610301910383610ecf565b604051928392602084019060208552518091526040840192915b818110610329575050500390f35b82516001600160a01b031684528594506020938401939092019160010161031b565b82546001600160a01b03168452602090930192600192830192016102eb565b50346101d1576102203660031901126101d15761038636610f1e565b906001600160a01b03610397610ef1565b1680156104d857602083019283511580156104cc575b80156104c0575b6104b157600460206103d36001600160a01b036101e08501511661140b565b936040519283809263313ce56760e01b82525afa9081156104a65761042e849360c061271061044561043861044f996104338d61041f6104339b8f9b61042e9c91610477575b50611315565b998a915160a08a015190611326565b611326565b611339565b9a5160e085015190611326565b0491015190611326565b820180921161046357602082604051908152f35b634e487b7160e01b81526011600452602490fd5b610499915060203d60201161049f575b6104918183610ecf565b8101906112fc565b5f610419565b503d610487565b6040513d86823e3d90fd5b63269ae9a360e01b8352600483fd5b5060c0810151156103b4565b5060a0810151156103ad565b63d92e233d60e01b8252600482fd5b50346101d157806003193601126101d15760206040516127108152f35b50346101d157806003193601126101d1576020600354604051908152f35b50346101d157806003193601126101d1576020600154604051908152f35b6110f0565b50346101d157806003193601126101d15760206040517f64ed6499e2f5a7ea55dfd56da361bf9d48064843bb3891c36f1dabd9ba2461358152f35b50346101d15760203660031901126101d157600435906003548210156105c35760206001600160a01b036105b3846110c4565b90549060031b1c16604051908152f35b634e23d03560e01b8152600490fd5b50346101d157806003193601126101d15760206040516001600160a01b037f0000000000000000000000000000000000000000000000000000000000000000168152f35b50346101d157806003193601126101d1576001600160a01b036020915416604051908152f35b61108a565b50346101d157806003193601126101d15761065a6113e5565b806001600160a01b038154811981168355167f8be0079c531659141344cd1fd0a4f28419497f9722a3daafe3b4186f6b6457e08280a380f35b50346101d157806003193601126101d15760206001600160a01b0360025416604051908152f35b50346101d15760203660031901126101d157600435906003548210156101d15760206001600160a01b036105b3846110c4565b50346101d157806003193601126101d15760206040516001600160a01b037f0000000000000000000000000000000000000000000000000000000000000000168152f35b50346101d15760203660031901126101d15761074b610f08565b6001600160a01b0316815260046020526040902080549080600181015460028201546003830154600484015460058501546006860154600787015490600888015492600989015494600a8a015496600b8b015498600c8c01549a600d8d01549c600e01549d600f01546001600160a01b03169e604051608052608051526080516020015260805160400152608051606001526080516080015260805160a0015260805160c0015260805160e00152608051610100015260805161012001526080516101400152608051610160015260805161018001526080516101a001526080516101c001526080516101e0015260805161020090f35b50346101d157806003193601126101d15761085b6113e5565b4780156109125781808080936001600160a01b038254165af13d1561090d573d67ffffffffffffffff81116108f957604051906108a2601f8201601f191660200183610ecf565b81528260203d92013e5b156108b45780f35b60405162461bcd60e51b815260206004820152601960248201527f45544820666565207769746864726177616c206661696c6564000000000000006044820152606490fd5b634e487b7160e01b83526041600452602483fd5b6108ac565b60405162461bcd60e51b815260206004820152601360248201527f4e6f206665657320746f207769746864726177000000000000000000000000006044820152606490fd5b50346101d15760203660031901126101d15761020061097c610977610f08565b611133565b6109896040518092610fd7565bf35b50610260366003190112610dc6576109a236610f1e565b906109ab610ef1565b61022435926001600160a01b038416809403610dc65761024435936001600160a01b038516809503610dc6576001548015610e9c576002546001600160a01b03169081610e6c575050600154803410610e5d57803411610e18575b505b6001600160a01b037f000000000000000000000000000000000000000000000000000000000000000016906001600160a01b037f000000000000000000000000000000000000000000000000000000000000000016936040519161385a8084019084821067ffffffffffffffff831117610e04576103009385936001600160a01b03926114868639835216988960208301526040820152610aac6060820187610fd7565b3361026082015284610280820152866102a08201527f00000000000000000000000000000000000000000000000000000000000000006102c08201526001600160a01b037f0000000000000000000000000000000000000000000000000000000000000000166102e08201520301905ff08015610df9576001600160a01b031692610b3a8351853389611357565b825160405190631e8028f160e01b825260048201526020816024815f895af18015610df957610dca575b50803b15610dc6575f8091604460405180948193632f2ff15d60e01b83527f64ed6499e2f5a7ea55dfd56da361bf9d48064843bb3891c36f1dabd9ba24613560048401528960248401525af19081610db1575b50610bcb576323266a9d60e01b8452600484fd5b803b156101cf5783808092604460405180958193632f2ff15d60e01b83527faf9a8bb3cbd6b84fbccefa71ff73e26e798553c6914585a84886212a46a9027960048401528960248401525af19182610d9c575b5050610c33576323266a9d60e01b8352600483fd5b60035468010000000000000000811015610d8857936001600160a01b036101e061020093610c6988600160209a016003556110c4565b81549060031b908589831b921b19161790556101208101938451908761014084019283516040519182528c8201527fdf058c371fcd1a975a9f8b29fb3823e0f4fcc990e97f681cca2bfe085eae91d960403392a46040519482518652898301518a87015260408301516040870152606083015160608701526080830151608087015260a083015160a087015260c083015160c087015260e083015160e087015261010083015161010087015251610120860152516101408501526101608101516101608501526101808101516101808501526101a08101516101a08501526101c08101516101c08501520151166101e0820152207f2713cc36a5eefec19061801b963fca7859e959b63f45b08825a60c4829b51d6b6040519380a28152f35b634e487b7160e01b84526041600452602484fd5b81610da691610ecf565b6101cf57835f610c1e565b610dbe9195505f90610ecf565b5f935f610bb7565b5f80fd5b6020813d602011610df1575b81610de360209383610ecf565b81010312610dc65751610b64565b3d9150610dd6565b6040513d5f823e3d90fd5b634e487b7160e01b5f52604160045260245ffd5b80340390348211610e49575f808093819382903414610e40575b3390f115610df9575f610a06565b506108fc610e32565b634e487b7160e01b5f52601160045260245ffd5b63f0e492a360e01b5f5260045ffd5b34610e8d57610e88916001600160a01b035f5416903390611357565b610a08565b63369276d760e11b5f5260045ffd5b503415610a085763369276d760e11b5f5260045ffd5b610200810190811067ffffffffffffffff821117610e0457604052565b90601f8019910116810190811067ffffffffffffffff821117610e0457604052565b61020435906001600160a01b0382168203610dc657565b600435906001600160a01b0382168203610dc657565b610200906003190112610dc65760405190610f3882610eb2565b6004358252602435602083015260443560408301526064356060830152608435608083015260a43560a083015260c43560c083015260e43560e083015261010435610100830152610124356101208301526101443561014083015261016435610160830152610184356101808301526101a4356101a08301526101c4356101c08301526101e435826001600160a01b0382168203610dc6576101e00152565b6001600160a01b036101e08092805185526020810151602086015260408101516040860152606081015160608601526080810151608086015260a081015160a086015260c081015160c086015260e081015160e08601526101008101516101008601526101208101516101208601526101408101516101408601526101608101516101608601526101808101516101808601526101a08101516101a08601526101c08101516101c0860152015116910152565b34610dc6575f366003190112610dc65760206040517f00000000000000000000000000000000000000000000000000000000000000008152f35b6003548110156110dc5760035f5260205f2001905f90565b634e487b7160e01b5f52603260045260245ffd5b34610dc6575f366003190112610dc65760206040516001600160a01b037f0000000000000000000000000000000000000000000000000000000000000000168152f35b60405161113f81610eb2565b5f81525f60208201525f60408201525f60608201525f60808201525f60a08201525f60c08201525f60e08201525f6101008201525f6101208201525f6101408201525f6101608201525f6101808201525f6101a08201525f6101c08201525f6101e08201525063ffffffff813b16156112ed576102006001600160a01b039160046040518094819363661770cb60e11b8352165afa5f91816111f3575b506111f057631aecebf760e01b5f5260045ffd5b90565b909150610200813d82116112e5575b816112106102009383610ecf565b81010312610dc6576101e06040519161122883610eb2565b805183526020810151602084015260408101516040840152606081015160608401526080810151608084015260a081015160a084015260c081015160c084015260e081015160e08401526101008101516101008401526101208101516101208401526101408101516101408401526101608101516101608401526101808101516101808401526101a08101516101a08401526101c08101516101c084015201516001600160a01b0381168103610dc6576101e0820152905f6111dc565b3d9150611202565b631aecebf760e01b5f5260045ffd5b90816020910312610dc6575160ff81168103610dc65790565b60ff16604d8111610e4957600a0a90565b81810292918115918404141715610e4957565b8115611343570490565b634e487b7160e01b5f52601260045260245ffd5b92906020925f926001600160a01b036040519281878501956323b872dd60e01b8752166024850152166044830152606482015260648152611399608482610ecf565b519082855af115610df9575f513d6113dc57506001600160a01b0381163b155b6113c05750565b6001600160a01b0390635274afe760e01b5f521660045260245ffd5b600114156113b9565b6001600160a01b035f541633036113f857565b63118cdaa760e01b5f523360045260245ffd5b6001600160a01b031680156114785760206004916040519283809263313ce56760e01b82525afa5f9181611457575b5061144e57631da50fef60e01b5f5260045ffd5b6111f090611315565b61147191925060203d60201161049f576104918183610ecf565b905f61143a565b50670de0b6b3a76400009056fe610180604052346105545761385a803803809161001e8261018061074c565b6101803961030081126105545761003661018061076f565b906100426101a061076f565b6102006100506101c061076f565b92605f190112610554576040519261020084016001600160401b038111858210176107255760409081526101e051855261020051602086015261022051908501526102405160608501526102605160808501526102805160a08501526102a05160c08501526102c05160e08501526102e05161010085015261030051610120850152610320516101408501526103405161016085015261036051610180850152610380516101a08501526103a0516101c085015261010f6103c061076f565b6101e08501526101206103e061076f565b9261012c61040061076f565b61013761042061076f565b610440519290919061014a61046061076f565b946001600160a01b03881615610739575f80546001600160a01b031981166001600160a01b038b8116918217845560405193919216907f8be0079c531659141344cd1fd0a4f28419497f9722a3daafe3b4186f6b6457e09080a36001805560c081016001600160401b038111828210176107255760405261138881526117706020820152611b586040820152611f406060820152612328608082015261271060a0820152601b546006601b55806006106106c5575b50601b5f5260205f20905f5b600681106106ad575050506001600160a01b03811615801561069c575b801561068b575b61066b576001600160a01b03831615801561067a575b61066b5760026101c08a01511161065c576101f48511610644576001600160a01b0386161580610653575b6106445760208901518015908115610637575b8115610629575b5061061a576080890151801590811561060d575b81156105fe575b81156105f0575b506105e15760a089015180159081156105d4575b81156105c5575b506105b6576101208901514281109081156105a6575b5061059757610180890151612710811190811561057a575b5061056b57610160526001600160a01b03868116610100521661012081905260405163c45a015560e01b815290602090829060049082905afa908115610560575f91610522575b506101409081526001600160a01b03918216608090815292821660a090815260c094855260e095865288516006556020808a01516007556040808b015160085560608b0151600955948a0151600a5590890151600b5593880151600c5593870151600d55610100870151600e55610120870151600f8190559387015160108190556101608801516011556101808801516012556101a08801516013556101c08801516014556101e090970151601580546001600160a01b0319169183169190911790556016805460ff19169055815193845291830195909552918216933093909216917fdf058c371fcd1a975a9f8b29fb3823e0f4fcc990e97f681cca2bfe085eae91d991a46040516130d690816107848239608051818181610fdb0152611b91015260a05181818161123a015281816114e00152612ac4015260c0518181816117160152611f2e015260e0518181816108d301526118000152610100518181816105b7015281816107bb0152818161096b01528181610be8015281816115140152818161161d01528181611908015281816121f4015281816126960152612919015261012051818181610f7901526119b201526101405181818161091201528181610cd70152818161193c015261218f0152610160518181816118d00152611fa80152f35b90506020813d602011610558575b8161053d6020938361074c565b810103126105545761054e9061076f565b5f61033c565b5f80fd5b3d9150610530565b6040513d5f823e3d90fd5b6329a8bc8760e11b5f5260045ffd5b905015158061058a575b5f6102f5565b506101a089015115610584565b63d22806e360e01b5f5260045ffd5b90506101408a015111155f6102dd565b63d1107a7960e01b5f5260045ffd5b905060c08a015110155f6102c7565b60c08b01511591506102c0565b63dcac5ed360e01b5f5260045ffd5b905060208a0151105f6102ac565b80915060608b015111906102a5565b60608b015115915061029e565b63269ae9a360e01b5f5260045ffd5b905060408a0151115f61028a565b60408b0151159150610283565b6362c9b89160e11b5f5260045ffd5b50841515610270565b635ff75f6f60e11b5f5260045ffd5b63f92ee8a960e01b5f5260045ffd5b506001600160a01b03841615610245565b506001600160a01b0382161561022f565b506001600160a01b03871615610228565b600190602061ffff845116930192818501550161020b565b601b5f527f3ad8aa4f87544323a9d1e5dd902f40c356527a7955687113db5f9a85ad579dc1017f3ad8aa4f87544323a9d1e5dd902f40c356527a7955687113db5f9a85ad579dc75b81811061071a57506101ff565b5f815560010161070d565b634e487b7160e01b5f52604160045260245ffd5b631e4fbdf760e01b5f525f60045260245ffd5b601f909101601f19168101906001600160401b0382119082101761072557604052565b51906001600160a01b03821682036105545756fe608080604052600436101561035f575b50361561001a575f80fd5b60ff600354166103505761002c6127c6565b60ff60165416600481101561033c576001810361032a57600f544210801561031f575b6103105733156103015760ff60035460081c1680610281575b610272576015546001600160a01b0316158015610248573415610239575b80156102325734905b601f549161009d818461247e565b60075410610223576009548110610214576100c490335f52601760205260405f205461247e565b600a541061020557156101fa576100dc34809261247e565b601f556100eb8160025461247e565b600255335f52601860205260ff60405f2054161561018d575b335f52601760205260405f2061011b82825461247e565b90556040518181527f2499a5330ab0979cc612135e7883ebc3cd5c9f7a8508f042540c34723348f63260203392a26001600160a01b03601554161560405191825260208201527f08ce00466abd322339ad31e43307a70a872f8c32a13d8b24ed85948ba75ed1b360403392a260018055005b335f52601860205260405f20600160ff19825416179055601954680100000000000000008110156101e6578060016101c89201601955612348565b81549060031b906001600160a01b0333831b921b1916179055610104565b634e487b7160e01b5f52604160045260245ffd5b6100dc34809261247e565b639f256db560e01b5f5260045ffd5b632afb507160e21b5f5260045ffd5b631c4af3c960e11b5f5260045ffd5b349061008f565b631f2a200560e01b5f5260045ffd5b34158015610264571561008657631f2a200560e01b5f5260045ffd5b6248c6b960e61b5f5260045ffd5b630b094f2760e31b5f5260045ffd5b50601a5460405160208101906bffffffffffffffffffffffff193360601b168252601481526102b16034826124e6565b5190205f905b6060518210156102f85760808260051b0151908181105f146102e7575f52602052600160405f205b9101906102b7565b905f52602052600160405f206102df565b90501415610068565b63bc02ea9360e01b5f5260045ffd5b6338e102f160e21b5f5260045ffd5b50601054421161004f565b63683f44bb60e11b5f5260045260245ffd5b634e487b7160e01b5f52602160045260245ffd5b63ab35696f60e01b5f5260045ffd5b5f905f3560e01c9081631069143a146122865750806318e4274d146122695780631e8028f11461217157806321eff7fc14611f51578063253da8bd146121545780632eb4a7ab1461213757806331f684c01461211a5780633ba86c44146120fd5780633cb5d100146120bc5780633ccfd60b1461202d5780633f4ba83a14611fcc5780633fc8cef314611f8957806342e94c9014611f5157806349d2e27714611f175780634bb278f31461167e5780634e71d92d146113bd57806351fb012d14611397578063590e1ae3146112815780635c975abb1461125e5780635e6f60451461121a578063715018a6146111c85780637abbc150146111485780637cb64759146110c257806380e3f1ad146110a85780638456cb59146110435780638da5cb5b1461101d57806391a9207b14610fff5780639759164a14610fbb5780639e1a4d1914610f9d578063a7c6402c14610f59578063af157c1914610e91578063af1ad48b14610de3578063aff177ca14610da3578063b57b92a514610d85578063bedcf00314610d67578063c19d93fb14610d27578063c1d41e9514610cfb578063c45a015514610cb7578063c5c4744c14610c99578063cc2ee19614610c71578063cea9d26f14610b07578063d02c880a14610a40578063d0e30db0146108f7578063d7cee31e146108b3578063e1f1c4a714610896578063ea4a9c851461086d578063ea8a1af01461070c578063ed498fa8146106e0578063f2fde38b1461064d578063f7bdc4f7146105de5763fc0c546a0361000f57346105db57806003193601126105db5760206040516001600160a01b037f0000000000000000000000000000000000000000000000000000000000000000168152f35b80fd5b5060203660031901126105db5760043567ffffffffffffffff81116106495761060b903690600401612392565b60ff6003541661063a576106339161062c916106256127c6565b3691612508565b3433612c0e565b6001805580f35b63ab35696f60e01b8352600483fd5b5080fd5b50346105db5760203660031901126105db576001600160a01b0361066f612332565b6106776127a0565b1680156106cc57815473ffffffffffffffffffffffffffffffffffffffff198116821783556001600160a01b03167f8be0079c531659141344cd1fd0a4f28419497f9722a3daafe3b4186f6b6457e08380a380f35b631e4fbdf760e01b82526004829052602482fd5b50346105db5760203660031901126105db5760206107046106ff612332565b612659565b604051908152f35b50346105db57806003193601126105db576107256127c6565b61072d6127a0565b60ff6003541661085e5760ff60165416906004821015918261084a578015158061083b575b6108135750600260ff196016541617601655601c5490816107a9575b6040514281527f27f83af92b39768b17fe0c8d6922452702717efb8626d97e7a754e0b27d4f6d260203392a260018055602060405160018152f35b601c556107e081336001600160a01b037f000000000000000000000000000000000000000000000000000000000000000016612ebb565b6040519081527fbf95d20e2a316bd9c3e2efd35653a948438013277330af4b3fee49455a0e637260203392a2808061076e565b6024926108295763683f44bb60e11b8252600452fd5b50634e487b7160e01b81526021600452fd5b50915080916001811415610752565b634e487b7160e01b82526021600452602482fd5b63ab35696f60e01b8152600490fd5b50346105db5760203660031901126105db57602061088c6004356125d2565b6040519015158152f35b50346105db57806003193601126105db5760206040516127108152f35b50346105db57806003193601126105db5760206040516001600160a01b037f0000000000000000000000000000000000000000000000000000000000000000168152f35b50346105db57806003193601126105db576001600160a01b037f0000000000000000000000000000000000000000000000000000000000000000163303610a315760ff6003541661085e5760ff60165416600481101561084a5780610a1f5750600654906109908230336001600160a01b037f00000000000000000000000000000000000000000000000000000000000000001661272a565b6109b161099b612772565b80601d556109a7612781565b9081601e5561247e565b808310610a0a5760208380601c556109d1600160ff196016541617601655565b60405181815242838201527f90890809c654f11d6e72a28fa60149770a0d11ec6c92319d6ceb2bb0a4ea1a1560403392a2604051908152f35b604492630d25268d60e01b8352600452602452fd5b63683f44bb60e11b8252600452602490fd5b631966391b60e11b8152600490fd5b50346105db57806003193601126105db57610a5961255e565b50610b03604051610a69816124c9565b6006548152600754602082015260085460408201526009546060820152600a546080820152600b5460a0820152600c5460c0820152600d5460e0820152600e54610100820152600f546101208201526010546101408201526011546101608201526012546101808201526013546101a08201526014546101c08201526001600160a01b03601554166101e0820152604051918291826123c3565b0390f35b50346105db5760603660031901126105db57610b21612332565b6024356001600160a01b03811691828203610c6d5760443590610b426127a0565b8315610c5e5760ff60165416600481101580610c4a57600382149182159081610c3b575b50610c2c57610c185780610bdd575b80610bd1575b610bc25781610bb87f77023e19c7343ad491fd706c36335ca0e738340a91f29b1fd81e2673d44896c4936001600160a01b03602094169586612ebb565b604051908152a380f35b63d64d4b7160e01b8552600485fd5b50600454421115610b7b565b506001600160a01b037f0000000000000000000000000000000000000000000000000000000000000000166001600160a01b03821614610b75565b634e487b7160e01b86526021600452602486fd5b63662fcd5d60e01b8752600487fd5b9150506002879114155f610b66565b634e487b7160e01b87526021600452602487fd5b63e6c4247b60e01b8552600485fd5b8380fd5b50346105db57806003193601126105db57610b03610c8d61255e565b604051918291826123c3565b50346105db57806003193601126105db576020601f54604051908152f35b50346105db57806003193601126105db5760206040516001600160a01b037f0000000000000000000000000000000000000000000000000000000000000000168152f35b50346105db57806003193601126105db576020610704610d19612772565b610d21612781565b9061247e565b50346105db57806003193601126105db5760ff60165416604051906004811015610d5357602092508152f35b634e487b7160e01b83526021600452602483fd5b50346105db57806003193601126105db576020600554604051908152f35b50346105db57806003193601126105db576020601e54604051908152f35b50346105db5760403660031901126105db5760043567ffffffffffffffff811161064957610dd5903690600401612392565b5050610ddf612383565b5080f35b50346105db5760403660031901126105db5760043560243567ffffffffffffffff8111610e8d57610e18903690600401612392565b60ff60035416610e7e57610e2a6127c6565b6001600160a01b03601554168015610e6f578315610e605791610e59916106258561063396953090339061272a565b9033612c0e565b631f2a200560e01b8552600485fd5b6306a39ded60e41b8552600485fd5b63ab35696f60e01b8452600484fd5b8280fd5b50346105db57806003193601126105db5760405180602060195491828152018091601985527f944998273e477b495144fb8794c914197f3ccb46be2900f4698fd0ef743c969590855b818110610f3a5750505082610ef09103836124e6565b604051928392602084019060208552518091526040840192915b818110610f18575050500390f35b82516001600160a01b0316845285945060209384019390920191600101610f0a565b82546001600160a01b0316845260209093019260019283019201610eda565b50346105db57806003193601126105db5760206040516001600160a01b037f0000000000000000000000000000000000000000000000000000000000000000168152f35b50346105db57806003193601126105db576020601c54604051908152f35b50346105db57806003193601126105db5760206040516001600160a01b037f0000000000000000000000000000000000000000000000000000000000000000168152f35b50346105db57806003193601126105db576020600254604051908152f35b50346105db57806003193601126105db576001600160a01b036020915416604051908152f35b50346105db57806003193601126105db5761105c6127a0565b60035460ff81166110995760ff1916600117600355337f62e78cea01bee320cd4e420270b5ea74000d11b0c9f74754ebdbfc544b05a2588280a280f35b631785c68160e01b8252600482fd5b50346105db5760203660031901126105db57610ddf612374565b50346105db5760203660031901126105db576004356110df6127a0565b60ff601654166004811015610d535780611136575080601a5560035461ff0082151560081b169061ff001916176003557f90004c04698bc3322499a575ed3752dd4abf33e0a7294c06a787a0fe01bea9418280a280f35b63683f44bb60e11b8352600452602482fd5b50346105db5760203660031901126105db576004356111656127a0565b60ff601654166004811015610d53576003810361113657506004548111156111b9576020817ff1178b3c495407dc107b27908c56bee4f47c0295055c88d6110c026737fd2eb392600455604051908152a180f35b631da7447960e21b8252600482fd5b50346105db57806003193601126105db576111e16127a0565b806001600160a01b038154811981168355167f8be0079c531659141344cd1fd0a4f28419497f9722a3daafe3b4186f6b6457e08280a380f35b50346105db57806003193601126105db5760206040516001600160a01b037f0000000000000000000000000000000000000000000000000000000000000000168152f35b50346105db57806003193601126105db57602060ff600354166040519015158152f35b50346105db57806003193601126105db5761129a6127c6565b60ff60165416600481101561084a5760028114908115611368575b50156113595733815260176020526040812054801561134a57602091338152601783528060408120558160025410155f1461134257506112f78160025461248b565b6002555b61130581336127e6565b60405181815242838201527f73f04af9dcc582a923ec15d3eea990fe34adabfff2879e28d44572e01a54abb660403392a260018055604051908152f35b6002556112fb565b634625bdf760e01b8252600482fd5b631ba168fb60e11b8152600490fd5b60019150148061138c575b8061137f575b5f6112b5565b50601f5460085411611379565b506010544211611373565b50346105db57806003193601126105db57602060ff60035460081c166040519015158152f35b50346105db57806003193601126105db576113d66127c6565b60ff6003541661085e5760ff60165416600481101561084a5760038103610a1f5750600454421161166f5761140a33612659565b8015611661573382526017602052816040812055601c5481811061165257816114329161248b565b601c5561143d6128bb565b8181526012546020820181905280156116485761271061145f60609285612498565b04915b6114746040820193808552825161248b565b91829101528061160e575b50805190816114c9575b60208360405181815242838201527f30c2341ba3f2142e78472f07dcf018a42044ae1c2c2e7ce867b327257f07ef2b60403392a260018055604051908152f35b60405163095ea7b360e01b81526001600160a01b037f0000000000000000000000000000000000000000000000000000000000000000811660048301819052602483019490945285927f00000000000000000000000000000000000000000000000000000000000000009091169160208160448187875af18015611603576115d6575b50519260135491813b15610c6d57604051631bc6452160e31b81523060048201523360248201526001600160a01b03919091166044820152606481019490945242608485015260a4840191909152829060c490829084905af180156115cb576115b6575b80611489565b6115c18380926124e6565b61064957816115b0565b6040513d85823e3d90fd5b6115f79060203d6020116115fc575b6115ef81836124e6565b8101906128a3565b61154c565b503d6115e5565b6040513d86823e3d90fd5b61164290336001600160a01b037f000000000000000000000000000000000000000000000000000000000000000016612ebb565b5f61147f565b5060608391611462565b637222ae5760e11b8352600483fd5b62f3f86160e41b8252600482fd5b632253b77960e01b8152600490fd5b5034611cda575f366003190112611cda576116976127a0565b60ff60035416610350576116a96127c6565b60ff60165416600481101561033c576001810361032a5750601054421115611f0857601f5460085411611ef957600360ff1960165416176016556127106116f5601f54600d5490612498565b04801590811580611838575b5061175e9150612710611757601f548261173c7f00000000000000000000000000000000000000000000000000000000000000008093612498565b04806117d3575b50611751601f54948561248b565b93612498565b049061248b565b60055562ed4e004201908142116117bf575060045561177b6128f0565b601f546040519081524260208201527f616c9469db50815ae0f1d0a020d9fc9060da7c57f03559afb0d4ebdaa0a3a05e60403392a260018055602060405160018152f35b634e487b7160e01b81526011600452602490fd5b7f0f5237766fb8b2313e23d359023b2fe32aa11ff9048495b861341a994d9114bc60206001600160a01b037f000000000000000000000000000000000000000000000000000000000000000061182985826127e6565b6040519485521692a25f611743565b601e549290611ef1575b611ee25760405160c0810181811067ffffffffffffffff8211176101e6576040526020810160408201915f835260608101905f825260808101935f855260a08201965f8852868352808552600e5461271003906127108211611d91576118b76127106118af848294612498565b049289612498565b04845281526015546001600160a01b031680611edc57507f0000000000000000000000000000000000000000000000000000000000000000935b60405163e6a4390560e01b81526001600160a01b037f0000000000000000000000000000000000000000000000000000000000000000811660048301819052878216602484015296907f000000000000000000000000000000000000000000000000000000000000000016602083604481845afa928315611cfb575f93611ebb575b506001600160a01b03831615611e05575b50506001600160a01b0316938415611df657938652805160405163095ea7b360e01b81526001600160a01b037f0000000000000000000000000000000000000000000000000000000000000000166004820181905260248201929092529490936020866044815f8b5af1958615611cfb57602496611dd9575b5060206001600160a01b03895116604051978880926370a0823160e01b82523060048301525afa958615611cfb575f96611da5575b505191519251905192610258420190814211611d915760609360c492604051968795869463f305d71960e01b86528c600487015260248601526044850152606484015230608484015260a4830152865af19081611d66575b50611ae557611a97612fe7565b6308c379a014611ab1575b6376d097f360e11b5f5260045ffd5b611ab9613002565b80611ac45750611aa2565b604051633c10bbab60e11b8152908190611ae19060048301613076565b0390fd5b5f926044602092604051958693849263095ea7b360e01b845260048401528160248401525af1918215611cfb57602492611d49575b5060206001600160a01b03845116604051938480926370a0823160e01b82523060048301525afa8015611cfb575f90611d15575b611b58925061248b565b80845215611d06576001600160a01b03905116915191611b7a6011544261247e565b60405163095ea7b360e01b81526001600160a01b037f0000000000000000000000000000000000000000000000000000000000000000166004820181905260248201869052919491906020816044815f885af18015611cfb57611cde575b506001600160a01b035f5416813b15611cda575f9160848392604051948593849263042964f560e11b84528960048501528860248501528b604485015260648401525af19081611cc5575b50611c7b5784611c31612fe7565b6308c379a014611c4b575b63a14cffc560e01b8152600490fd5b611c53613002565b80611c5e5750611c3c565b604051630822993160e31b8152908190611ae19060048301613076565b60407fac1d76749e5447b7b16f5ab61447e1bd502f3bb4807af3b28e620d1700a6ee459161175e9582519182526020820152a2611cbc601e54601c5461248b565b601c555f611701565b611cd29196505f906124e6565b5f945f611c23565b5f80fd5b611cf69060203d6020116115fc576115ef81836124e6565b611bd8565b6040513d5f823e3d90fd5b630bdc07d160e21b5f5260045ffd5b506020823d602011611d41575b81611d2f602093836124e6565b81010312611cda57611b589151611b4e565b3d9150611d22565b611d619060203d6020116115fc576115ef81836124e6565b611b1a565b606090813d8311611d8a575b611d7c81836124e6565b81010312611cda575f611a8a565b503d611d72565b634e487b7160e01b5f52601160045260245ffd5b9095506020813d602011611dd1575b81611dc1602093836124e6565b81010312611cda5751945f611a32565b3d9150611db4565b611df19060203d6020116115fc576115ef81836124e6565b6119fd565b63284dbaed60e01b5f5260045ffd5b6040516364e329cb60e11b81526001600160a01b03898116600483015283166024820152919a97999798969594939250602090829060449082905f905af15f9181611e8a575b50611e70576001600160a01b038a8a634fe1e92b60e11b5f526004521660245260445ffd5b6001600160a01b039192939495979950979597905f611984565b611ead91925060203d602011611eb4575b611ea581836124e6565b810190612fc8565b905f611e4b565b503d611e9b565b611ed591935060203d602011611eb457611ea581836124e6565b915f611973565b936118f1565b63d69ebc4560e01b5f5260045ffd5b508115611842565b632bdc91ad60e01b5f5260045ffd5b63dfc7e2e560e01b5f5260045ffd5b34611cda575f366003190112611cda5760206040517f00000000000000000000000000000000000000000000000000000000000000008152f35b34611cda576020366003190112611cda576001600160a01b03611f72612332565b165f526017602052602060405f2054604051908152f35b34611cda575f366003190112611cda5760206040516001600160a01b037f0000000000000000000000000000000000000000000000000000000000000000168152f35b34611cda575f366003190112611cda57611fe46127a0565b60035460ff81161561201e5760ff1916600355337f5db9ee0a495bf2e6ff9c91a7834c1ba4fdd244a5e8aa4e537bd38aeae4b073aa5f80a2005b636cd6020160e01b5f5260045ffd5b34611cda575f366003190112611cda576120456127a0565b61204d6127c6565b60ff60165416600481101561033c576003810361032a5760055480156120ad575f60055561207b81336127e6565b6040519081527f7084f5476618d8e60b11ef0d7d3f06914655adb8793e28ff7f018d4c76d505d560203392a260018055005b6367e3990d60e01b5f5260045ffd5b34611cda576020366003190112611cda57600435601954811015611cda576001600160a01b036120ed602092612348565b90549060031b1c16604051908152f35b34611cda575f366003190112611cda576020600454604051908152f35b34611cda575f366003190112611cda576020601d54604051908152f35b34611cda575f366003190112611cda576020601a54604051908152f35b34611cda575f366003190112611cda576020601954604051908152f35b34611cda576020366003190112611cda576004356001600160a01b037f000000000000000000000000000000000000000000000000000000000000000016330361225a5760ff600354166103505760ff60165416600481101561033c578061032a5750801561023957600f54421015610310576122198130336001600160a01b037f00000000000000000000000000000000000000000000000000000000000000001661272a565b61222461099b612772565b908181106122455780602091601c556109d1600160ff196016541617601655565b630d25268d60e01b5f5260045260245260445ffd5b631966391b60e11b5f5260045ffd5b34611cda575f366003190112611cda576020601f54604051908152f35b34611cda575f366003190112611cda57600654600754600854600954600a54600b54600c54600d54600e5490600f54926010549460115496601254988d6013549b6014549d6015546001600160a01b03169f8352602083015260408201526060015260808d015260a08c015260c08b015260e08a01526101008901526101208801526101408701526101608601526101808501526101a08401526101c08301526101e082015261020090f35b600435906001600160a01b0382168203611cda57565b6019548110156123605760195f5260205f2001905f90565b634e487b7160e01b5f52603260045260245ffd5b600435908115158203611cda57565b602435908115158203611cda57565b9181601f84011215611cda5782359167ffffffffffffffff8311611cda576020808501948460051b010111611cda57565b9190916101e06001600160a01b0381610200840195805185526020810151602086015260408101516040860152606081015160608601526080810151608086015260a081015160a086015260c081015160c086015260e081015160e08601526101008101516101008601526101208101516101208601526101408101516101408601526101608101516101608601526101808101516101808601526101a08101516101a08601526101c08101516101c0860152015116910152565b91908201809211611d9157565b91908203918211611d9157565b81810292918115918404141715611d9157565b81156124b5570490565b634e487b7160e01b5f52601260045260245ffd5b610200810190811067ffffffffffffffff8211176101e657604052565b90601f8019910116810190811067ffffffffffffffff8211176101e657604052565b9291909267ffffffffffffffff84116101e6578360051b906020604051612531828501826124e6565b8096815201918101928311611cda57905b82821061254e57505050565b8135815260209182019101612542565b6040519061256b826124c9565b5f6101e0838281528260208201528260408201528260608201528260808201528260a08201528260c08201528260e08201528261010082015282610120820152826101408201528261016082015282610180820152826101a0820152826101c08201520152565b601b5490815f5b8381106125e857505050505f90565b8181101561236057601b5f527f3ad8aa4f87544323a9d1e5dd902f40c356527a7955687113db5f9a85ad579dc18101548314612626576001016125d9565b50505050600190565b90816020910312611cda575160ff81168103611cda5790565b60ff16604d8111611d9157600a0a90565b6001600160a01b03165f52601760205260405f2054801561272557600b5461268091612498565b60405163313ce56760e01b8152906020826004817f00000000000000000000000000000000000000000000000000000000000000006001600160a01b03165afa908115611cfb576126df6126e5926126f3945f916126f6575b50612648565b90612498565b6126ed612ef7565b906124ab565b90565b612718915060203d60201161271e575b61271081836124e6565b81019061262f565b5f6126d9565b503d612706565b505f90565b9091926001600160a01b036127709481604051956323b872dd60e01b602088015216602486015216604484015260648301526064825261276b6084836124e6565b612f74565b565b612680600754600b5490612498565b612680612710612796600754600d5490612498565b04600c5490612498565b6001600160a01b035f541633036127b357565b63118cdaa760e01b5f523360045260245ffd5b6002600154146127d7576002600155565b633ee5aeb560e01b5f5260045ffd5b811561289f576015546001600160a01b031680612894575081471061287d575f8080936001600160a01b038294165af13d15612875573d9067ffffffffffffffff82116101e65760405191612845601f8201601f1916602001846124e6565b82523d5f602084013e5b156128575750565b80511561286657805190602001fd5b63d6bda27560e01b5f5260045ffd5b60609061284f565b504763cf47918160e01b5f5260045260245260445ffd5b906127709291612ebb565b5050565b90816020910312611cda57518015158103611cda5790565b604051906080820182811067ffffffffffffffff8211176101e6576040525f6060838281528260208201528260408201520152565b6128f86128bb565b601f549061290a5f92600b5490612498565b60405163313ce56760e01b81527f00000000000000000000000000000000000000000000000000000000000000006001600160a01b031691602082600481865afa908115611cfb576126df6126e592612969945f916126f65750612648565b808352601d54809111612c06575b61298283518261248b565b6020840190815260606129d361299b601e54809561247e565b92601c54948486956129ad838861247e565b1115612bfd576129c06129c5928761247e565b61248b565b905b8160408901525161247e565b94019380855211612bf5575b82518015612bee576129f09161248b565b601c5560145480612a4657506001600160a01b037fbf95d20e2a316bd9c3e2efd35653a948438013277330af4b3fee49455a0e637292612a3860209383875416835191612ebb565b5193541692604051908152a2565b600103612aab5790612aa17fa23a441fdb6a3236d37796809dafdaba773a27be440ae9746e9b9f8cf2c2106e9360209383516040519263a9059cbb60e01b87850152602484015260448301526044825261276b6064836124e6565b51604051908152a1565b815160405163095ea7b360e01b81526001600160a01b037f0000000000000000000000000000000000000000000000000000000000000000166004820181905260248201929092529091906020816044815f865af18015611cfb57612bd1575b506001600160a01b035f541683519260135493813b15611cda57604051631bc6452160e31b81523060048201526001600160a01b039384166024820152939092166044840152606483019190915242608483015260a4820192909252905f90829060c490829084905af18015611cfb57612bbb575b5060206001600160a01b037fffbab51a97c2620266485de4ca0e9acd7a3e7412812e256ff5d6831fa5dacaa9925193541692604051908152a2565b612bc89192505f906124e6565b5f906020612b80565b612be99060203d6020116115fc576115ef81836124e6565b612b0b565b5050505050565b8083526129df565b50505f906129c7565b808352612977565b60ff60165416600481101561033c576001810361032a5750600f5442108015612eb0575b610310576001600160a01b0381169283156103015760ff60035460081c169182612e22575b5050610272576015546001600160a01b031615908115612e09573415610239575b8115612e025734915b601f5492612c8f818561247e565b6007541061022357600954811061021457612cb690855f52601760205260405f205461247e565b600a54106102055715612df75750612ccf34809261247e565b601f55612cde8160025461247e565b600255815f52601860205260ff60405f20541615612d77575b60407f08ce00466abd322339ad31e43307a70a872f8c32a13d8b24ed85948ba75ed1b391835f526017602052815f20612d3182825461247e565b9055837f2499a5330ab0979cc612135e7883ebc3cd5c9f7a8508f042540c34723348f63260208451848152a26001600160a01b03601554161582519182526020820152a2565b815f52601860205260405f20600160ff19825416179055601954680100000000000000008110156101e6577f08ce00466abd322339ad31e43307a70a872f8c32a13d8b24ed85948ba75ed1b391612dd682600160409401601955612348565b81549060031b906001600160a01b0387831b921b1916179055915050612cf7565b612ccf90809261247e565b8091612c81565b346102645780612c7857631f2a200560e01b5f5260045ffd5b9390949150601a549360405160208101916bffffffffffffffffffffffff199060601b16825260148152612e576034826124e6565b519020925f935b8651851015612ea05760208560051b88010151908181105f14612e8f575f52602052600160405f205b940193612e5e565b905f52602052600160405f20612e87565b9194929550925014155f80612c57565b506010544211612c32565b60405163a9059cbb60e01b60208201526001600160a01b039290921660248301526044808301939093529181526127709161276b6064836124e6565b6001600160a01b03601554168015612f675760206004916040519283809263313ce56760e01b82525afa5f9181612f46575b50612f3d57631da50fef60e01b5f5260045ffd5b6126f390612648565b612f6091925060203d60201161271e5761271081836124e6565b905f612f29565b50670de0b6b3a764000090565b905f602091828151910182855af115611cfb575f513d612fbf57506001600160a01b0381163b155b612fa35750565b6001600160a01b0390635274afe760e01b5f521660045260245ffd5b60011415612f9c565b90816020910312611cda57516001600160a01b0381168103611cda5790565b5f9060033d11612ff357565b905060045f803e5f5160e01c90565b5f60443d106126f3576040513d600319016004823e8051913d602484011167ffffffffffffffff841117613070578282019283519167ffffffffffffffff8311613068573d8401600319018584016020011161306857506126f3929101602001906124e6565b949350505050565b92915050565b602060409281835280519182918282860152018484015e5f828201840152601f01601f191601019056fea2646970667358221220149856b9a79ec1855c17136e83aea6defd600e2894acedcf7c77d9360786fff864736f6c634300081c0033a26469706673582212208c573530060ab3caf314cd91f868cdf51a7ce996d3d60ac1769aebb93cde98e564736f6c634300081c0033608060405234602357600180556013336027565b5060405161096b90816100b08239f35b5f80fd5b6001600160a01b0381165f9081525f516020610a1b5f395f51905f52602052604090205460ff1660aa576001600160a01b03165f8181525f516020610a1b5f395f51905f5260205260408120805460ff191660011790553391907f2f8788117e7eff1d82e926ec794901d17c78024a50270940304540a733656f0d8180a4600190565b505f9056fe6080806040526004361015610012575f80fd5b5f3560e01c90816301ffc9a714610693575080630852c9ea1461046d578063248a9ca31461043b5780632e1a7d4d1461034a5780632f2ff15d1461030d57806336568abe146102c957806391d14854146102805780639b10b6f514610263578063a217fddf14610249578063d547741f14610205578063d68f4dd114610153578063f3621367146101195763f4dadc61146100ab575f80fd5b3461011557602036600319011261011557600435600254811015610115576100d2906106fc565b50805460018201546002830154600390930154604080516001600160a01b03948516815260208101939093528201939093529116606082015280608081015b0390f35b5f80fd5b34610115575f3660031901126101155760206040517faf9a8bb3cbd6b84fbccefa71ff73e26e798553c6914585a84886212a46a902798152f35b34610115576020366003190112610115576004356002548110156101f65761017a906106fc565b506040519061018882610748565b61011160606001600160a01b03835416928385526001810154948560208201526001600160a01b03600360028401549384604085015201541692839101526040519485948592936001600160a01b039195946060938360808701981686526020860152604085015216910152565b63aefe60c360e01b5f5260045ffd5b34610115576040366003190112610115576102476004356102246106e6565b9061024261023d825f525f602052600160405f20015490565b610786565b610853565b005b34610115575f3660031901126101155760206040515f8152f35b34610115575f366003190112610115576020600254604051908152f35b34610115576040366003190112610115576102996106e6565b6004355f525f6020526001600160a01b0360405f2091165f52602052602060ff60405f2054166040519015158152f35b34610115576040366003190112610115576102e26106e6565b336001600160a01b038216036102fe5761024790600435610853565b63334bd91960e11b5f5260045ffd5b346101155760403660031901126101155761024760043561032c6106e6565b9061034561023d825f525f602052600160405f20015490565b6107c6565b34610115576020366003190112610115576004356002548110156101f657610371906106fc565b506001600160a01b03600382015416330361042c576002810154421061041d5760018101805491821561040e576001600160a01b035f91541691556103e060405163a9059cbb60e01b6020820152336024820152836044820152604481526103da606482610764565b826108d6565b6040519182527f725d2b2a111aeccedf70abe4c73292de678c38a3446d20b8bbc9ae328be13b0b60203393a3005b637dd28aa760e11b5f5260045ffd5b636f832da560e11b5f5260045ffd5b630472b49d60e51b5f5260045ffd5b346101155760203660031901126101155760206104656004355f525f602052600160405f20015490565b604051908152f35b34610115576080366003190112610115576004356001600160a01b038116809103610115576024359060443591606435926001600160a01b03841680940361011557335f9081527f3e7a7484ad32e5d459b6ed6a870672becd5b865934878407075b570e26e63f9b602052604090205460ff161561065c57821561064d57811561063e574281111561062f578315610620576105396040516323b872dd60e01b602082015233602482015230604482015283606482015260648152610533608482610764565b846108d6565b6040519161054683610748565b8383526020830191818352604084019281845260608501938785526002546801000000000000000081101561060c5780600161058592016002556106fc565b9290926105f9576001600160a01b03604096819360039383807f70dd2ea452c01de3d3a2ead13a24d1f199d318ad9a23778061d1c2bf137068a39c51161684198854161787555160018701555160028601555116920191166001600160a01b031982541617905582519182526020820152a3005b634e487b7160e01b5f525f60045260245ffd5b634e487b7160e01b5f52604160045260245ffd5b633649397d60e21b5f5260045ffd5b6352aba6d360e11b5f5260045ffd5b631f2a200560e01b5f5260045ffd5b630f58058360e11b5f5260045ffd5b63e2517d3f60e01b5f52336004527faf9a8bb3cbd6b84fbccefa71ff73e26e798553c6914585a84886212a46a9027960245260445ffd5b34610115576020366003190112610115576004359063ffffffff60e01b821680920361011557602091637965db0b60e01b81149081156106d5575b5015158152f35b6301ffc9a760e01b149050836106ce565b602435906001600160a01b038216820361011557565b6002548110156107345760025f81815291901b7f405787fa12a823e0f2b7631cc41b3ba8828b3321ca811111fa75cd3aa3bb5ace0191565b634e487b7160e01b5f52603260045260245ffd5b6080810190811067ffffffffffffffff82111761060c57604052565b90601f8019910116810190811067ffffffffffffffff82111761060c57604052565b805f525f60205260405f206001600160a01b0333165f5260205260ff60405f205416156107b05750565b63e2517d3f60e01b5f523360045260245260445ffd5b805f525f60205260405f206001600160a01b0383165f5260205260ff60405f205416155f1461084d57805f525f60205260405f206001600160a01b0383165f5260205260405f20600160ff198254161790556001600160a01b03339216907f2f8788117e7eff1d82e926ec794901d17c78024a50270940304540a733656f0d5f80a4600190565b50505f90565b805f525f60205260405f206001600160a01b0383165f5260205260ff60405f2054165f1461084d57805f525f60205260405f206001600160a01b0383165f5260205260405f2060ff1981541690556001600160a01b03339216907ff6391f5c32d9c69d2a47ea670b442974b53935d1edc7fd64eb21e047a839171b5f80a4600190565b905f602091828151910182855af11561092a575f513d61092157506001600160a01b0381163b155b6109055750565b6001600160a01b0390635274afe760e01b5f521660045260245ffd5b600114156108fe565b6040513d5f823e3d90fdfea264697066735822122027daa8e68185cabafe6f5c54bb5c2d8e64251b3ff673d348b9ab483b462adc0c64736f6c634300081c0033ad3228b676f7d3cd4284a5443f17f1962b36e491b30a40b2405849e597ba5fb5608060405234602357600180556013336027565b5060405161101790816100b08239f35b5f80fd5b6001600160a01b0381165f9081525f5160206110c75f395f51905f52602052604090205460ff1660aa576001600160a01b03165f8181525f5160206110c75f395f51905f5260205260408120805460ff191660011790553391907f2f8788117e7eff1d82e926ec794901d17c78024a50270940304540a733656f0d8180a4600190565b505f9056fe6080806040526004361015610012575f80fd5b5f3560e01c90816301ffc9a714610a82575080631916558714610742578063248a9ca3146107185780632f2ff15d146106db57806336568abe146106975780633f4ba83a146106365780635c975abb146106145780638456cb59146105b157806391d1485414610568578063a217fddf1461054e578063a61dc00b146104b5578063aa77f26c14610489578063ae5ad2271461044f578063aeb506ea1461041b578063d547741f146103d75763de322908146100cc575f80fd5b346102d85760c03660031901126102d8576100e5610ad5565b6100ed610aeb565b90604435916001600160a01b0383168093036102d857335f9081527f90fd55ceb663452644e110a0baa7233edcf7e07e293a5498f9dbac3f84d8a23b60205260409020546064359260a43591608435919060ff16156103a05760ff60025416610391576001600160a01b0316928315610382576001600160a01b031693841561037357851561036457801561029857821561035557835f52600360205260405f20855f5260205260405f20600581019081548560ff82165f1461032157505060019150016101bc828254610b74565b90555b6040516370a0823160e01b81523060048201526020816024818a5afa9081156102e4575f916102ef575b506102246040516323b872dd60e01b60208201523360248201523060448201528360648201526064815261021e608482610b52565b88610f8d565b6040516370a0823160e01b8152306004820152906020826024818b5afa80156102e45783925f916102a7575b509061025b91610b01565b03610298577f0818d1da3bded782e0bbcaa25ed0b1502a281527846cea8fcc787ecd3d264c5d9260609260405192835260208301526040820152a4005b63162908e360e11b5f5260045ffd5b919250506020813d6020116102dc575b816102c460209383610b52565b810103126102d8575182919061025b610250565b5f80fd5b3d91506102b7565b6040513d5f823e3d90fd5b90506020813d602011610319575b8161030a60209383610b52565b810103126102d857515f6101e9565b3d91506102fd565b60046001938b6001600160a01b031982541617815586858201555f6002820155876003820155015560ff19161790556101bf565b637616640160e01b5f5260045ffd5b630f58058360e11b5f5260045ffd5b631559b7d760e21b5f5260045ffd5b63b56fdfef60e01b5f5260045ffd5b63ab35696f60e01b5f5260045ffd5b63e2517d3f60e01b5f52336004527f64ed6499e2f5a7ea55dfd56da361bf9d48064843bb3891c36f1dabd9ba24613560245260445ffd5b346102d85760403660031901126102d8576104196004356103f6610aeb565b9061041461040f825f525f602052600160405f20015490565b610e43565b610f0a565b005b346102d85760403660031901126102d8576020610447610439610ad5565b610441610aeb565b90610c97565b604051908152f35b346102d8575f3660031901126102d85760206040517f64ed6499e2f5a7ea55dfd56da361bf9d48064843bb3891c36f1dabd9ba2461358152f35b346102d85760403660031901126102d85760206104476104a7610ad5565b6104af610aeb565b90610b81565b346102d85760403660031901126102d8576104ce610ad5565b6001600160a01b036104de610aeb565b91165f5260036020526001600160a01b0360405f2091165f5260205260c060405f206001600160a01b0381541690600181015490600281015460038201549060ff6005600485015494015416936040519586526020860152604085015260608401526080830152151560a0820152f35b346102d8575f3660031901126102d85760206040515f8152f35b346102d85760403660031901126102d857610581610aeb565b6004355f525f6020526001600160a01b0360405f2091165f52602052602060ff60405f2054166040519015158152f35b346102d8575f3660031901126102d8576105c9610df4565b60025460ff81166106055760ff1916600117600255337f62e78cea01bee320cd4e420270b5ea74000d11b0c9f74754ebdbfc544b05a2585f80a2005b631785c68160e01b5f5260045ffd5b346102d8575f3660031901126102d857602060ff600254166040519015158152f35b346102d8575f3660031901126102d85761064e610df4565b60025460ff8116156106885760ff1916600255337f5db9ee0a495bf2e6ff9c91a7834c1ba4fdd244a5e8aa4e537bd38aeae4b073aa5f80a2005b636cd6020160e01b5f5260045ffd5b346102d85760403660031901126102d8576106b0610aeb565b336001600160a01b038216036106cc5761041990600435610f0a565b63334bd91960e11b5f5260045ffd5b346102d85760403660031901126102d8576104196004356106fa610aeb565b9061071361040f825f525f602052600160405f20015490565b610e83565b346102d85760203660031901126102d85760206104476004355f525f602052600160405f20015490565b346102d85760203660031901126102d85761075b610ad5565b600260015414610a7357600260015560ff60025416610391576001600160a01b03811690815f52600360205260405f206001600160a01b0333165f5260205260405f2060ff60058201541615610a64576107b53383610b81565b906002810161091a8154936108ac6107cd8683610b01565b965f806108326108406040516107e4604082610b52565b601781527f2d2d2d2056657374696e672052656c65617365202d2d2d000000000000000000602082015260405192839163104c13eb60e21b6020840152602060248401526044830190610d2a565b03601f198101835282610b52565b6020815191016a636f6e736f6c652e6c6f675afa50610884604051610866604082610b52565b600a8152692a34b6b2b9ba30b6b81d60b11b60208201524290610d4e565b604051610892604082610b52565b6008815267283932b9b0b6329d60c11b6020820152610da8565b6108dd6040516108bd604082610b52565b600c81526b2132b732b334b1b4b0b93c9d60a11b60208201523390610da8565b6040516108eb604082610b52565b601481527f546f74616c2056657374656420536f204661723a0000000000000000000000006020820152610d4e565b61095b8360405161092c604082610b52565b601181527f416c72656164792052656c65617365643a0000000000000000000000000000006020820152610d4e565b61099c8460405161096d604082610b52565b601e81527f43616c63756c617465642052656c65617361626c65202844656c7461293a00006020820152610d4e565b8315610a64576109b4846001600160a01b0394610b74565b90556109f7836040516109c8604082610b52565b601481527f5472616e7366657272696e6720416d6f756e743a0000000000000000000000006020820152610d4e565b805460405163a9059cbb60e01b602082015233602482015260448082018690528152610a2f918416610a2a606483610b52565b610f8d565b5416916040519182527f177de809d108c62a7ae835c49b0ab8ffeebcc7b3b4045930da8dfe54f6d9cddc60203393a460018055005b63094b911b60e41b5f5260045ffd5b633ee5aeb560e01b5f5260045ffd5b346102d85760203660031901126102d8576004359063ffffffff60e01b82168092036102d857602091637965db0b60e01b8114908115610ac4575b5015158152f35b6301ffc9a760e01b14905083610abd565b600435906001600160a01b03821682036102d857565b602435906001600160a01b03821682036102d857565b91908203918211610b0e57565b634e487b7160e01b5f52601160045260245ffd5b60c0810190811067ffffffffffffffff821117610b3e57604052565b634e487b7160e01b5f52604160045260245ffd5b90601f8019910116810190811067ffffffffffffffff821117610b3e57604052565b91908201809211610b0e57565b6001600160a01b03165f5260036020526001600160a01b0360405f2091165f5260205260405f2060405190610bb582610b22565b6001600160a01b0381541682526001810154602083019281845260028301546040820152600383015490606081019282845260048501549160ff60056080830197858952015416159060a08215910152610c8d57824210908115610c84575b508015610c7c575b610c7357610c2991610b74565b421015610c6d57610c3b905142610b01565b9151828102928184041490151715610b0e5751908115610c59570490565b634e487b7160e01b5f52601260045260245ffd5b50505190565b50505050505f90565b508015610c1c565b9050155f610c14565b5050505050505f90565b6001600160a01b03165f5260036020526001600160a01b0360405f2091165f5260205260405f2060405190610ccb82610b22565b6001600160a01b03815416825260018101549182602082015260ff60056002840154938460408501526003810154606085015260048101546080850152015416159060a08215910152610d2457610d2191610b01565b90565b50505f90565b805180835260209291819084018484015e5f828201840152601f01601f1916010190565b610d7d610d915f93928493604051938492632d839cb360e21b6020850152604060248501526064840190610d2a565b90604483015203601f198101835282610b52565b6020815191016a636f6e736f6c652e6c6f675afa50565b610ddf610d915f939284936001600160a01b0360405194859363319af33360e01b6020860152604060248601526064850190610d2a565b9116604483015203601f198101835282610b52565b335f9081527fad3228b676f7d3cd4284a5443f17f1962b36e491b30a40b2405849e597ba5fb5602052604090205460ff1615610e2c57565b63e2517d3f60e01b5f52336004525f60245260445ffd5b805f525f60205260405f206001600160a01b0333165f5260205260ff60405f20541615610e6d5750565b63e2517d3f60e01b5f523360045260245260445ffd5b805f525f60205260405f206001600160a01b0383165f5260205260ff60405f205416155f14610d2457805f525f60205260405f206001600160a01b0383165f5260205260405f20600160ff198254161790556001600160a01b03339216907f2f8788117e7eff1d82e926ec794901d17c78024a50270940304540a733656f0d5f80a4600190565b805f525f60205260405f206001600160a01b0383165f5260205260ff60405f2054165f14610d2457805f525f60205260405f206001600160a01b0383165f5260205260405f2060ff1981541690556001600160a01b03339216907ff6391f5c32d9c69d2a47ea670b442974b53935d1edc7fd64eb21e047a839171b5f80a4600190565b905f602091828151910182855af1156102e4575f513d610fd857506001600160a01b0381163b155b610fbc5750565b6001600160a01b0390635274afe760e01b5f521660045260245ffd5b60011415610fb556fea264697066735822122021aaec2d02cab9063e3136882da4b761d55db73fb1b0f56e0e7f695b8c3ddb1664736f6c634300081c0033ad3228b676f7d3cd4284a5443f17f1962b36e491b30a40b2405849e597ba5fb5","linkReferences":{}},"methodIdentifiers":{"BASIS_POINTS()":"e1f1c4a7","LOCKER_ROLE()":"f3621367","VESTER_ROLE()":"ae5ad227","calculateTotalTokensNeededForPresale((uint256,uint256,uint256,uint256,uint256,uint256,uint256,uint256,uint256,uint256,uint256,uint256,uint256,uint256,uint256,address),address)":"e5013c3d","createPresale((uint256,uint256,uint256,uint256,uint256,uint256,uint256,uint256,uint256,uint256,uint256,uint256,uint256,uint256,uint256,address),address,address,address)":"0b4d793c","createdPresales(uint256)":"62e6b3a9","creationFee()":"dce0b4e4","feeToken()":"647846a5","getAllPresales()":"ea9160dd","getCreationFee()":"db07b68e","getHouseAddress()":"92144b62","getHousePercentage()":"7ef97d73","getPresaleAt(uint256)":"a7259767","getPresaleCount()":"defbdb83","getPresaleOptionsByAddress(address)":"1be06f63","houseAddress()":"d7cee31e","housePercentage()":"49d2e277","liquidityLocker()":"9759164a","owner()":"8da5cb5b","presaleConfigurations(address)":"59e7412b","renounceOwnership()":"715018a6","setFeeConfiguration(uint256,address)":"fae85927","transferOwnership(address)":"f2fde38b","vestingContract()":"5e6f6045","withdrawFees()":"476343ee"},"id":45}