{"abi":[{"type":"constructor","inputs":[{"name":"_weth","type":"address","internalType":"address"},{"name":"_token","type":"address","internalType":"address"},{"name":"_uniswapV2Router02","type":"address","internalType":"address"},{"name":"_options","type":"tuple","internalType":"struct Presale.PresaleOptions","components":[{"name":"tokenDeposit","type":"uint256","internalType":"uint256"},{"name":"hardCap","type":"uint256","internalType":"uint256"},{"name":"softCap","type":"uint256","internalType":"uint256"},{"name":"min","type":"uint256","internalType":"uint256"},{"name":"max","type":"uint256","internalType":"uint256"},{"name":"presaleRate","type":"uint256","internalType":"uint256"},{"name":"listingRate","type":"uint256","internalType":"uint256"},{"name":"liquidityBps","type":"uint256","internalType":"uint256"},{"name":"slippageBps","type":"uint256","internalType":"uint256"},{"name":"start","type":"uint256","internalType":"uint256"},{"name":"end","type":"uint256","internalType":"uint256"},{"name":"lockupDuration","type":"uint256","internalType":"uint256"},{"name":"vestingPercentage","type":"uint256","internalType":"uint256"},{"name":"vestingDuration","type":"uint256","internalType":"uint256"},{"name":"leftoverTokenOption","type":"uint256","internalType":"uint256"},{"name":"currency","type":"address","internalType":"address"}]},{"name":"_creator","type":"address","internalType":"address"},{"name":"_liquidityLocker","type":"address","internalType":"address"},{"name":"_vestingContract","type":"address","internalType":"address"},{"name":"_housePercentage","type":"uint256","internalType":"uint256"},{"name":"_houseAddress","type":"address","internalType":"address"}],"stateMutability":"nonpayable"},{"type":"receive","stateMutability":"payable"},{"type":"function","name":"BASIS_POINTS","inputs":[],"outputs":[{"name":"","type":"uint256","internalType":"uint256"}],"stateMutability":"view"},{"type":"function","name":"calculateTotalTokensNeeded","inputs":[],"outputs":[{"name":"","type":"uint256","internalType":"uint256"}],"stateMutability":"view"},{"type":"function","name":"cancel","inputs":[],"outputs":[{"name":"","type":"bool","internalType":"bool"}],"stateMutability":"nonpayable"},{"type":"function","name":"claim","inputs":[],"outputs":[{"name":"","type":"uint256","internalType":"uint256"}],"stateMutability":"nonpayable"},{"type":"function","name":"claimDeadline","inputs":[],"outputs":[{"name":"","type":"uint256","internalType":"uint256"}],"stateMutability":"view"},{"type":"function","name":"contribute","inputs":[{"name":"_merkleProof","type":"bytes32[]","internalType":"bytes32[]"}],"outputs":[],"stateMutability":"payable"},{"type":"function","name":"contributeStablecoin","inputs":[{"name":"_amount","type":"uint256","internalType":"uint256"},{"name":"_merkleProof","type":"bytes32[]","internalType":"bytes32[]"}],"outputs":[],"stateMutability":"nonpayable"},{"type":"function","name":"contributions","inputs":[{"name":"","type":"address","internalType":"address"}],"outputs":[{"name":"","type":"uint256","internalType":"uint256"}],"stateMutability":"view"},{"type":"function","name":"contributors","inputs":[{"name":"","type":"uint256","internalType":"uint256"}],"outputs":[{"name":"","type":"address","internalType":"address"}],"stateMutability":"view"},{"type":"function","name":"deposit","inputs":[],"outputs":[{"name":"","type":"uint256","internalType":"uint256"}],"stateMutability":"nonpayable"},{"type":"function","name":"extendClaimDeadline","inputs":[{"name":"_newDeadline","type":"uint256","internalType":"uint256"}],"outputs":[],"stateMutability":"nonpayable"},{"type":"function","name":"factory","inputs":[],"outputs":[{"name":"","type":"address","internalType":"address"}],"stateMutability":"view"},{"type":"function","name":"finalize","inputs":[],"outputs":[{"name":"","type":"bool","internalType":"bool"}],"stateMutability":"nonpayable"},{"type":"function","name":"getContribution","inputs":[{"name":"_contributor","type":"address","internalType":"address"}],"outputs":[{"name":"","type":"uint256","internalType":"uint256"}],"stateMutability":"view"},{"type":"function","name":"getContributorCount","inputs":[],"outputs":[{"name":"","type":"uint256","internalType":"uint256"}],"stateMutability":"view"},{"type":"function","name":"getContributors","inputs":[],"outputs":[{"name":"","type":"address[]","internalType":"address[]"}],"stateMutability":"view"},{"type":"function","name":"getOptions","inputs":[],"outputs":[{"name":"","type":"tuple","internalType":"struct Presale.PresaleOptions","components":[{"name":"tokenDeposit","type":"uint256","internalType":"uint256"},{"name":"hardCap","type":"uint256","internalType":"uint256"},{"name":"softCap","type":"uint256","internalType":"uint256"},{"name":"min","type":"uint256","internalType":"uint256"},{"name":"max","type":"uint256","internalType":"uint256"},{"name":"presaleRate","type":"uint256","internalType":"uint256"},{"name":"listingRate","type":"uint256","internalType":"uint256"},{"name":"liquidityBps","type":"uint256","internalType":"uint256"},{"name":"slippageBps","type":"uint256","internalType":"uint256"},{"name":"start","type":"uint256","internalType":"uint256"},{"name":"end","type":"uint256","internalType":"uint256"},{"name":"lockupDuration","type":"uint256","internalType":"uint256"},{"name":"vestingPercentage","type":"uint256","internalType":"uint256"},{"name":"vestingDuration","type":"uint256","internalType":"uint256"},{"name":"leftoverTokenOption","type":"uint256","internalType":"uint256"},{"name":"currency","type":"address","internalType":"address"}]}],"stateMutability":"view"},{"type":"function","name":"getPresaleOptions","inputs":[],"outputs":[{"name":"","type":"tuple","internalType":"struct Presale.PresaleOptions","components":[{"name":"tokenDeposit","type":"uint256","internalType":"uint256"},{"name":"hardCap","type":"uint256","internalType":"uint256"},{"name":"softCap","type":"uint256","internalType":"uint256"},{"name":"min","type":"uint256","internalType":"uint256"},{"name":"max","type":"uint256","internalType":"uint256"},{"name":"presaleRate","type":"uint256","internalType":"uint256"},{"name":"listingRate","type":"uint256","internalType":"uint256"},{"name":"liquidityBps","type":"uint256","internalType":"uint256"},{"name":"slippageBps","type":"uint256","internalType":"uint256"},{"name":"start","type":"uint256","internalType":"uint256"},{"name":"end","type":"uint256","internalType":"uint256"},{"name":"lockupDuration","type":"uint256","internalType":"uint256"},{"name":"vestingPercentage","type":"uint256","internalType":"uint256"},{"name":"vestingDuration","type":"uint256","internalType":"uint256"},{"name":"leftoverTokenOption","type":"uint256","internalType":"uint256"},{"name":"currency","type":"address","internalType":"address"}]}],"stateMutability":"view"},{"type":"function","name":"getTotalContributed","inputs":[],"outputs":[{"name":"","type":"uint256","internalType":"uint256"}],"stateMutability":"view"},{"type":"function","name":"houseAddress","inputs":[],"outputs":[{"name":"","type":"address","internalType":"address"}],"stateMutability":"view"},{"type":"function","name":"housePercentage","inputs":[],"outputs":[{"name":"","type":"uint256","internalType":"uint256"}],"stateMutability":"view"},{"type":"function","name":"initializeDeposit","inputs":[{"name":"_amount","type":"uint256","internalType":"uint256"}],"outputs":[{"name":"","type":"uint256","internalType":"uint256"}],"stateMutability":"nonpayable"},{"type":"function","name":"isAllowedLiquidityBps","inputs":[{"name":"_bps","type":"uint256","internalType":"uint256"}],"outputs":[{"name":"","type":"bool","internalType":"bool"}],"stateMutability":"view"},{"type":"function","name":"liquidityLocker","inputs":[],"outputs":[{"name":"","type":"address","internalType":"contract LiquidityLocker"}],"stateMutability":"view"},{"type":"function","name":"merkleRoot","inputs":[],"outputs":[{"name":"","type":"bytes32","internalType":"bytes32"}],"stateMutability":"view"},{"type":"function","name":"options","inputs":[],"outputs":[{"name":"tokenDeposit","type":"uint256","internalType":"uint256"},{"name":"hardCap","type":"uint256","internalType":"uint256"},{"name":"softCap","type":"uint256","internalType":"uint256"},{"name":"min","type":"uint256","internalType":"uint256"},{"name":"max","type":"uint256","internalType":"uint256"},{"name":"presaleRate","type":"uint256","internalType":"uint256"},{"name":"listingRate","type":"uint256","internalType":"uint256"},{"name":"liquidityBps","type":"uint256","internalType":"uint256"},{"name":"slippageBps","type":"uint256","internalType":"uint256"},{"name":"start","type":"uint256","internalType":"uint256"},{"name":"end","type":"uint256","internalType":"uint256"},{"name":"lockupDuration","type":"uint256","internalType":"uint256"},{"name":"vestingPercentage","type":"uint256","internalType":"uint256"},{"name":"vestingDuration","type":"uint256","internalType":"uint256"},{"name":"leftoverTokenOption","type":"uint256","internalType":"uint256"},{"name":"currency","type":"address","internalType":"address"}],"stateMutability":"view"},{"type":"function","name":"owner","inputs":[],"outputs":[{"name":"","type":"address","internalType":"address"}],"stateMutability":"view"},{"type":"function","name":"ownerBalance","inputs":[],"outputs":[{"name":"","type":"uint256","internalType":"uint256"}],"stateMutability":"view"},{"type":"function","name":"pause","inputs":[],"outputs":[],"stateMutability":"nonpayable"},{"type":"function","name":"paused","inputs":[],"outputs":[{"name":"","type":"bool","internalType":"bool"}],"stateMutability":"view"},{"type":"function","name":"refund","inputs":[],"outputs":[{"name":"","type":"uint256","internalType":"uint256"}],"stateMutability":"nonpayable"},{"type":"function","name":"renounceOwnership","inputs":[],"outputs":[],"stateMutability":"nonpayable"},{"type":"function","name":"rescueTokens","inputs":[{"name":"_erc20Token","type":"address","internalType":"address"},{"name":"_to","type":"address","internalType":"address"},{"name":"_amount","type":"uint256","internalType":"uint256"}],"outputs":[],"stateMutability":"nonpayable"},{"type":"function","name":"setMerkleRoot","inputs":[{"name":"_merkleRoot","type":"bytes32","internalType":"bytes32"}],"outputs":[],"stateMutability":"nonpayable"},{"type":"function","name":"state","inputs":[],"outputs":[{"name":"","type":"uint8","internalType":"enum Presale.PresaleState"}],"stateMutability":"view"},{"type":"function","name":"toggleWhitelist","inputs":[{"name":"enabled","type":"bool","internalType":"bool"}],"outputs":[],"stateMutability":"nonpayable"},{"type":"function","name":"token","inputs":[],"outputs":[{"name":"","type":"address","internalType":"contract ERC20"}],"stateMutability":"view"},{"type":"function","name":"tokenBalance","inputs":[],"outputs":[{"name":"","type":"uint256","internalType":"uint256"}],"stateMutability":"view"},{"type":"function","name":"tokensClaimable","inputs":[],"outputs":[{"name":"","type":"uint256","internalType":"uint256"}],"stateMutability":"view"},{"type":"function","name":"tokensLiquidity","inputs":[],"outputs":[{"name":"","type":"uint256","internalType":"uint256"}],"stateMutability":"view"},{"type":"function","name":"totalRaised","inputs":[],"outputs":[{"name":"","type":"uint256","internalType":"uint256"}],"stateMutability":"view"},{"type":"function","name":"totalRefundable","inputs":[],"outputs":[{"name":"","type":"uint256","internalType":"uint256"}],"stateMutability":"view"},{"type":"function","name":"transferOwnership","inputs":[{"name":"newOwner","type":"address","internalType":"address"}],"outputs":[],"stateMutability":"nonpayable"},{"type":"function","name":"uniswapV2Router02","inputs":[],"outputs":[{"name":"","type":"address","internalType":"contract IUniswapV2Router02"}],"stateMutability":"view"},{"type":"function","name":"unpause","inputs":[],"outputs":[],"stateMutability":"nonpayable"},{"type":"function","name":"updateWhitelist","inputs":[{"name":"addresses","type":"address[]","internalType":"address[]"},{"name":"add","type":"bool","internalType":"bool"}],"outputs":[],"stateMutability":"nonpayable"},{"type":"function","name":"userTokens","inputs":[{"name":"_contributor","type":"address","internalType":"address"}],"outputs":[{"name":"","type":"uint256","internalType":"uint256"}],"stateMutability":"view"},{"type":"function","name":"vestingContract","inputs":[],"outputs":[{"name":"","type":"address","internalType":"contract Vesting"}],"stateMutability":"view"},{"type":"function","name":"weth","inputs":[],"outputs":[{"name":"","type":"address","internalType":"address"}],"stateMutability":"view"},{"type":"function","name":"whitelistEnabled","inputs":[],"outputs":[{"name":"","type":"bool","internalType":"bool"}],"stateMutability":"view"},{"type":"function","name":"withdraw","inputs":[],"outputs":[],"stateMutability":"nonpayable"},{"type":"event","name":"Cancel","inputs":[{"name":"owner","type":"address","indexed":true,"internalType":"address"},{"name":"timestamp","type":"uint256","indexed":false,"internalType":"uint256"}],"anonymous":false},{"type":"event","name":"ClaimDeadlineExtended","inputs":[{"name":"newDeadline","type":"uint256","indexed":false,"internalType":"uint256"}],"anonymous":false},{"type":"event","name":"Contribution","inputs":[{"name":"contributor","type":"address","indexed":true,"internalType":"address"},{"name":"amount","type":"uint256","indexed":false,"internalType":"uint256"},{"name":"isETH","type":"bool","indexed":false,"internalType":"bool"}],"anonymous":false},{"type":"event","name":"Deposit","inputs":[{"name":"sender","type":"address","indexed":true,"internalType":"address"},{"name":"amount","type":"uint256","indexed":false,"internalType":"uint256"},{"name":"timestamp","type":"uint256","indexed":false,"internalType":"uint256"}],"anonymous":false},{"type":"event","name":"Finalized","inputs":[{"name":"owner","type":"address","indexed":true,"internalType":"address"},{"name":"amountRaised","type":"uint256","indexed":false,"internalType":"uint256"},{"name":"timestamp","type":"uint256","indexed":false,"internalType":"uint256"}],"anonymous":false},{"type":"event","name":"HouseFundsDistributed","inputs":[{"name":"house","type":"address","indexed":true,"internalType":"address"},{"name":"amount","type":"uint256","indexed":false,"internalType":"uint256"}],"anonymous":false},{"type":"event","name":"LeftoverTokensBurned","inputs":[{"name":"amount","type":"uint256","indexed":false,"internalType":"uint256"}],"anonymous":false},{"type":"event","name":"LeftoverTokensReturned","inputs":[{"name":"amount","type":"uint256","indexed":false,"internalType":"uint256"},{"name":"beneficiary","type":"address","indexed":true,"internalType":"address"}],"anonymous":false},{"type":"event","name":"LeftoverTokensVested","inputs":[{"name":"amount","type":"uint256","indexed":false,"internalType":"uint256"},{"name":"beneficiary","type":"address","indexed":true,"internalType":"address"}],"anonymous":false},{"type":"event","name":"LiquidityAdded","inputs":[{"name":"pair","type":"address","indexed":true,"internalType":"address"},{"name":"lpAmount","type":"uint256","indexed":false,"internalType":"uint256"},{"name":"unlockTime","type":"uint256","indexed":false,"internalType":"uint256"}],"anonymous":false},{"type":"event","name":"MerkleRootUpdated","inputs":[{"name":"_merkleRoot","type":"bytes32","indexed":true,"internalType":"bytes32"}],"anonymous":false},{"type":"event","name":"OwnershipTransferred","inputs":[{"name":"previousOwner","type":"address","indexed":true,"internalType":"address"},{"name":"newOwner","type":"address","indexed":true,"internalType":"address"}],"anonymous":false},{"type":"event","name":"Paused","inputs":[{"name":"account","type":"address","indexed":true,"internalType":"address"}],"anonymous":false},{"type":"event","name":"PresaleCreated","inputs":[{"name":"creator","type":"address","indexed":true,"internalType":"address"},{"name":"presale","type":"address","indexed":true,"internalType":"address"},{"name":"token","type":"address","indexed":true,"internalType":"address"},{"name":"start","type":"uint256","indexed":false,"internalType":"uint256"},{"name":"end","type":"uint256","indexed":false,"internalType":"uint256"}],"anonymous":false},{"type":"event","name":"Purchase","inputs":[{"name":"buyer","type":"address","indexed":true,"internalType":"address"},{"name":"amount","type":"uint256","indexed":false,"internalType":"uint256"}],"anonymous":false},{"type":"event","name":"Refund","inputs":[{"name":"contributor","type":"address","indexed":true,"internalType":"address"},{"name":"amount","type":"uint256","indexed":false,"internalType":"uint256"},{"name":"timestamp","type":"uint256","indexed":false,"internalType":"uint256"}],"anonymous":false},{"type":"event","name":"TokenClaim","inputs":[{"name":"claimer","type":"address","indexed":true,"internalType":"address"},{"name":"amount","type":"uint256","indexed":false,"internalType":"uint256"},{"name":"timestamp","type":"uint256","indexed":false,"internalType":"uint256"}],"anonymous":false},{"type":"event","name":"TokensRescued","inputs":[{"name":"token","type":"address","indexed":true,"internalType":"address"},{"name":"to","type":"address","indexed":true,"internalType":"address"},{"name":"amount","type":"uint256","indexed":false,"internalType":"uint256"}],"anonymous":false},{"type":"event","name":"Unpaused","inputs":[{"name":"account","type":"address","indexed":true,"internalType":"address"}],"anonymous":false},{"type":"event","name":"WhitelistToggled","inputs":[{"name":"enabled","type":"bool","indexed":false,"internalType":"bool"}],"anonymous":false},{"type":"event","name":"WhitelistUpdated","inputs":[{"name":"contributor","type":"address","indexed":true,"internalType":"address"},{"name":"added","type":"bool","indexed":false,"internalType":"bool"}],"anonymous":false},{"type":"event","name":"Withdrawn","inputs":[{"name":"owner","type":"address","indexed":true,"internalType":"address"},{"name":"amount","type":"uint256","indexed":false,"internalType":"uint256"}],"anonymous":false},{"type":"error","name":"AlreadyPaused","inputs":[]},{"type":"error","name":"BatchTooLarge","inputs":[]},{"type":"error","name":"BelowMinimumContribution","inputs":[]},{"type":"error","name":"CannotRescueBeforeFinalization","inputs":[]},{"type":"error","name":"CannotRescueBeforeFinalizationOrCancellation","inputs":[]},{"type":"error","name":"CannotRescuePresaleTokens","inputs":[]},{"type":"error","name":"ClaimPeriodExpired","inputs":[]},{"type":"error","name":"ContractPaused","inputs":[]},{"type":"error","name":"DeprecatedFunction","inputs":[]},{"type":"error","name":"ETHNotAccepted","inputs":[]},{"type":"error","name":"ExceedsMaximumContribution","inputs":[]},{"type":"error","name":"FailedCall","inputs":[]},{"type":"error","name":"HardCapExceed","inputs":[]},{"type":"error","name":"HardCapExceeded","inputs":[]},{"type":"error","name":"InsufficientBalance","inputs":[{"name":"balance","type":"uint256","internalType":"uint256"},{"name":"needed","type":"uint256","internalType":"uint256"}]},{"type":"error","name":"InsufficientContractBalance","inputs":[]},{"type":"error","name":"InsufficientTokenBalance","inputs":[]},{"type":"error","name":"InsufficientTokenDeposit","inputs":[{"name":"amount","type":"uint256","internalType":"uint256"},{"name":"totalTokensNeeded","type":"uint256","internalType":"uint256"}]},{"type":"error","name":"InvalidAddress","inputs":[]},{"type":"error","name":"InvalidCapSettings","inputs":[]},{"type":"error","name":"InvalidCapValue","inputs":[]},{"type":"error","name":"InvalidContributionLimits","inputs":[]},{"type":"error","name":"InvalidContributorAddress","inputs":[]},{"type":"error","name":"InvalidCurrencyDecimals","inputs":[]},{"type":"error","name":"InvalidDeadline","inputs":[]},{"type":"error","name":"InvalidHouseAddress","inputs":[]},{"type":"error","name":"InvalidHouseConfiguration","inputs":[]},{"type":"error","name":"InvalidHousePercentage","inputs":[]},{"type":"error","name":"InvalidInitialization","inputs":[]},{"type":"error","name":"InvalidInitializationParameters","inputs":[]},{"type":"error","name":"InvalidLeftoverTokenOption","inputs":[]},{"type":"error","name":"InvalidLimitValue","inputs":[]},{"type":"error","name":"InvalidLiquidityAmounts","inputs":[]},{"type":"error","name":"InvalidLiquidityBps","inputs":[]},{"type":"error","name":"InvalidLiquidityValue","inputs":[]},{"type":"error","name":"InvalidLockupDuration","inputs":[]},{"type":"error","name":"InvalidRates","inputs":[]},{"type":"error","name":"InvalidRouter","inputs":[]},{"type":"error","name":"InvalidSettings","inputs":[]},{"type":"error","name":"InvalidSlippage","inputs":[]},{"type":"error","name":"InvalidState","inputs":[{"name":"currentState","type":"uint8","internalType":"uint8"}]},{"type":"error","name":"InvalidTimestampValue","inputs":[]},{"type":"error","name":"InvalidTimestamps","inputs":[]},{"type":"error","name":"InvalidVestingDuration","inputs":[]},{"type":"error","name":"InvalidVestingPercentage","inputs":[]},{"type":"error","name":"LPLockFailed","inputs":[]},{"type":"error","name":"LPLockFailedReason","inputs":[{"name":"reason","type":"string","internalType":"string"}]},{"type":"error","name":"LiquificationFailed","inputs":[]},{"type":"error","name":"LiquificationFailedReason","inputs":[{"name":"reason","type":"string","internalType":"string"}]},{"type":"error","name":"LiquificationFailedReasonBytes","inputs":[{"name":"reason","type":"bytes","internalType":"bytes"}]},{"type":"error","name":"LiquificationYieldedZeroLP","inputs":[]},{"type":"error","name":"NoFundsToRefund","inputs":[]},{"type":"error","name":"NoFundsToWithdraw","inputs":[]},{"type":"error","name":"NoTokensToClaim","inputs":[]},{"type":"error","name":"NotActive","inputs":[]},{"type":"error","name":"NotClaimable","inputs":[]},{"type":"error","name":"NotFactory","inputs":[]},{"type":"error","name":"NotInPurchasePeriod","inputs":[]},{"type":"error","name":"NotPaused","inputs":[]},{"type":"error","name":"NotRefundable","inputs":[]},{"type":"error","name":"NotWhitelisted","inputs":[]},{"type":"error","name":"OwnableInvalidOwner","inputs":[{"name":"owner","type":"address","internalType":"address"}]},{"type":"error","name":"OwnableUnauthorizedAccount","inputs":[{"name":"account","type":"address","internalType":"address"}]},{"type":"error","name":"PairAddressZero","inputs":[]},{"type":"error","name":"PairCreationFailed","inputs":[{"name":"token","type":"address","internalType":"address"},{"name":"pairCurrency","type":"address","internalType":"address"}]},{"type":"error","name":"PresaleNotEnded","inputs":[]},{"type":"error","name":"PurchaseBelowMinimum","inputs":[]},{"type":"error","name":"PurchaseLimitExceed","inputs":[]},{"type":"error","name":"ReentrancyGuardReentrantCall","inputs":[]},{"type":"error","name":"SafeERC20FailedOperation","inputs":[{"name":"token","type":"address","internalType":"address"}]},{"type":"error","name":"SoftCapNotReached","inputs":[]},{"type":"error","name":"SoftCapTooLow","inputs":[]},{"type":"error","name":"StablecoinNotAccepted","inputs":[]},{"type":"error","name":"Unauthorized","inputs":[]},{"type":"error","name":"ZeroAmount","inputs":[]},{"type":"error","name":"ZeroDecimals","inputs":[]},{"type":"error","name":"ZeroLiquidityAmounts","inputs":[]},{"type":"error","name":"ZeroTokensForContribution","inputs":[]}],"bytecode":{"object":"0x610180604052346105545761385a803803809161001e8261018061074c565b6101803961030081126105545761003661018061076f565b906100426101a061076f565b6102006100506101c061076f565b92605f190112610554576040519261020084016001600160401b038111858210176107255760409081526101e051855261020051602086015261022051908501526102405160608501526102605160808501526102805160a08501526102a05160c08501526102c05160e08501526102e05161010085015261030051610120850152610320516101408501526103405161016085015261036051610180850152610380516101a08501526103a0516101c085015261010f6103c061076f565b6101e08501526101206103e061076f565b9261012c61040061076f565b61013761042061076f565b610440519290919061014a61046061076f565b946001600160a01b03881615610739575f80546001600160a01b031981166001600160a01b038b8116918217845560405193919216907f8be0079c531659141344cd1fd0a4f28419497f9722a3daafe3b4186f6b6457e09080a36001805560c081016001600160401b038111828210176107255760405261138881526117706020820152611b586040820152611f406060820152612328608082015261271060a0820152601b546006601b55806006106106c5575b50601b5f5260205f20905f5b600681106106ad575050506001600160a01b03811615801561069c575b801561068b575b61066b576001600160a01b03831615801561067a575b61066b5760026101c08a01511161065c576101f48511610644576001600160a01b0386161580610653575b6106445760208901518015908115610637575b8115610629575b5061061a576080890151801590811561060d575b81156105fe575b81156105f0575b506105e15760a089015180159081156105d4575b81156105c5575b506105b6576101208901514281109081156105a6575b5061059757610180890151612710811190811561057a575b5061056b57610160526001600160a01b03868116610100521661012081905260405163c45a015560e01b815290602090829060049082905afa908115610560575f91610522575b506101409081526001600160a01b03918216608090815292821660a090815260c094855260e095865288516006556020808a01516007556040808b015160085560608b0151600955948a0151600a5590890151600b5593880151600c5593870151600d55610100870151600e55610120870151600f8190559387015160108190556101608801516011556101808801516012556101a08801516013556101c08801516014556101e090970151601580546001600160a01b0319169183169190911790556016805460ff19169055815193845291830195909552918216933093909216917fdf058c371fcd1a975a9f8b29fb3823e0f4fcc990e97f681cca2bfe085eae91d991a46040516130d690816107848239608051818181610fdb0152611b91015260a05181818161123a015281816114e00152612ac4015260c0518181816117160152611f2e015260e0518181816108d301526118000152610100518181816105b7015281816107bb0152818161096b01528181610be8015281816115140152818161161d01528181611908015281816121f4015281816126960152612919015261012051818181610f7901526119b201526101405181818161091201528181610cd70152818161193c015261218f0152610160518181816118d00152611fa80152f35b90506020813d602011610558575b8161053d6020938361074c565b810103126105545761054e9061076f565b5f61033c565b5f80fd5b3d9150610530565b6040513d5f823e3d90fd5b6329a8bc8760e11b5f5260045ffd5b905015158061058a575b5f6102f5565b506101a089015115610584565b63d22806e360e01b5f5260045ffd5b90506101408a015111155f6102dd565b63d1107a7960e01b5f5260045ffd5b905060c08a015110155f6102c7565b60c08b01511591506102c0565b63dcac5ed360e01b5f5260045ffd5b905060208a0151105f6102ac565b80915060608b015111906102a5565b60608b015115915061029e565b63269ae9a360e01b5f5260045ffd5b905060408a0151115f61028a565b60408b0151159150610283565b6362c9b89160e11b5f5260045ffd5b50841515610270565b635ff75f6f60e11b5f5260045ffd5b63f92ee8a960e01b5f5260045ffd5b506001600160a01b03841615610245565b506001600160a01b0382161561022f565b506001600160a01b03871615610228565b600190602061ffff845116930192818501550161020b565b601b5f527f3ad8aa4f87544323a9d1e5dd902f40c356527a7955687113db5f9a85ad579dc1017f3ad8aa4f87544323a9d1e5dd902f40c356527a7955687113db5f9a85ad579dc75b81811061071a57506101ff565b5f815560010161070d565b634e487b7160e01b5f52604160045260245ffd5b631e4fbdf760e01b5f525f60045260245ffd5b601f909101601f19168101906001600160401b0382119082101761072557604052565b51906001600160a01b03821682036105545756fe608080604052600436101561035f575b50361561001a575f80fd5b60ff600354166103505761002c6127c6565b60ff60165416600481101561033c576001810361032a57600f544210801561031f575b6103105733156103015760ff60035460081c1680610281575b610272576015546001600160a01b0316158015610248573415610239575b80156102325734905b601f549161009d818461247e565b60075410610223576009548110610214576100c490335f52601760205260405f205461247e565b600a541061020557156101fa576100dc34809261247e565b601f556100eb8160025461247e565b600255335f52601860205260ff60405f2054161561018d575b335f52601760205260405f2061011b82825461247e565b90556040518181527f2499a5330ab0979cc612135e7883ebc3cd5c9f7a8508f042540c34723348f63260203392a26001600160a01b03601554161560405191825260208201527f08ce00466abd322339ad31e43307a70a872f8c32a13d8b24ed85948ba75ed1b360403392a260018055005b335f52601860205260405f20600160ff19825416179055601954680100000000000000008110156101e6578060016101c89201601955612348565b81549060031b906001600160a01b0333831b921b1916179055610104565b634e487b7160e01b5f52604160045260245ffd5b6100dc34809261247e565b639f256db560e01b5f5260045ffd5b632afb507160e21b5f5260045ffd5b631c4af3c960e11b5f5260045ffd5b349061008f565b631f2a200560e01b5f5260045ffd5b34158015610264571561008657631f2a200560e01b5f5260045ffd5b6248c6b960e61b5f5260045ffd5b630b094f2760e31b5f5260045ffd5b50601a5460405160208101906bffffffffffffffffffffffff193360601b168252601481526102b16034826124e6565b5190205f905b6060518210156102f85760808260051b0151908181105f146102e7575f52602052600160405f205b9101906102b7565b905f52602052600160405f206102df565b90501415610068565b63bc02ea9360e01b5f5260045ffd5b6338e102f160e21b5f5260045ffd5b50601054421161004f565b63683f44bb60e11b5f5260045260245ffd5b634e487b7160e01b5f52602160045260245ffd5b63ab35696f60e01b5f5260045ffd5b5f905f3560e01c9081631069143a146122865750806318e4274d146122695780631e8028f11461217157806321eff7fc14611f51578063253da8bd146121545780632eb4a7ab1461213757806331f684c01461211a5780633ba86c44146120fd5780633cb5d100146120bc5780633ccfd60b1461202d5780633f4ba83a14611fcc5780633fc8cef314611f8957806342e94c9014611f5157806349d2e27714611f175780634bb278f31461167e5780634e71d92d146113bd57806351fb012d14611397578063590e1ae3146112815780635c975abb1461125e5780635e6f60451461121a578063715018a6146111c85780637abbc150146111485780637cb64759146110c257806380e3f1ad146110a85780638456cb59146110435780638da5cb5b1461101d57806391a9207b14610fff5780639759164a14610fbb5780639e1a4d1914610f9d578063a7c6402c14610f59578063af157c1914610e91578063af1ad48b14610de3578063aff177ca14610da3578063b57b92a514610d85578063bedcf00314610d67578063c19d93fb14610d27578063c1d41e9514610cfb578063c45a015514610cb7578063c5c4744c14610c99578063cc2ee19614610c71578063cea9d26f14610b07578063d02c880a14610a40578063d0e30db0146108f7578063d7cee31e146108b3578063e1f1c4a714610896578063ea4a9c851461086d578063ea8a1af01461070c578063ed498fa8146106e0578063f2fde38b1461064d578063f7bdc4f7146105de5763fc0c546a0361000f57346105db57806003193601126105db5760206040516001600160a01b037f0000000000000000000000000000000000000000000000000000000000000000168152f35b80fd5b5060203660031901126105db5760043567ffffffffffffffff81116106495761060b903690600401612392565b60ff6003541661063a576106339161062c916106256127c6565b3691612508565b3433612c0e565b6001805580f35b63ab35696f60e01b8352600483fd5b5080fd5b50346105db5760203660031901126105db576001600160a01b0361066f612332565b6106776127a0565b1680156106cc57815473ffffffffffffffffffffffffffffffffffffffff198116821783556001600160a01b03167f8be0079c531659141344cd1fd0a4f28419497f9722a3daafe3b4186f6b6457e08380a380f35b631e4fbdf760e01b82526004829052602482fd5b50346105db5760203660031901126105db5760206107046106ff612332565b612659565b604051908152f35b50346105db57806003193601126105db576107256127c6565b61072d6127a0565b60ff6003541661085e5760ff60165416906004821015918261084a578015158061083b575b6108135750600260ff196016541617601655601c5490816107a9575b6040514281527f27f83af92b39768b17fe0c8d6922452702717efb8626d97e7a754e0b27d4f6d260203392a260018055602060405160018152f35b601c556107e081336001600160a01b037f000000000000000000000000000000000000000000000000000000000000000016612ebb565b6040519081527fbf95d20e2a316bd9c3e2efd35653a948438013277330af4b3fee49455a0e637260203392a2808061076e565b6024926108295763683f44bb60e11b8252600452fd5b50634e487b7160e01b81526021600452fd5b50915080916001811415610752565b634e487b7160e01b82526021600452602482fd5b63ab35696f60e01b8152600490fd5b50346105db5760203660031901126105db57602061088c6004356125d2565b6040519015158152f35b50346105db57806003193601126105db5760206040516127108152f35b50346105db57806003193601126105db5760206040516001600160a01b037f0000000000000000000000000000000000000000000000000000000000000000168152f35b50346105db57806003193601126105db576001600160a01b037f0000000000000000000000000000000000000000000000000000000000000000163303610a315760ff6003541661085e5760ff60165416600481101561084a5780610a1f5750600654906109908230336001600160a01b037f00000000000000000000000000000000000000000000000000000000000000001661272a565b6109b161099b612772565b80601d556109a7612781565b9081601e5561247e565b808310610a0a5760208380601c556109d1600160ff196016541617601655565b60405181815242838201527f90890809c654f11d6e72a28fa60149770a0d11ec6c92319d6ceb2bb0a4ea1a1560403392a2604051908152f35b604492630d25268d60e01b8352600452602452fd5b63683f44bb60e11b8252600452602490fd5b631966391b60e11b8152600490fd5b50346105db57806003193601126105db57610a5961255e565b50610b03604051610a69816124c9565b6006548152600754602082015260085460408201526009546060820152600a546080820152600b5460a0820152600c5460c0820152600d5460e0820152600e54610100820152600f546101208201526010546101408201526011546101608201526012546101808201526013546101a08201526014546101c08201526001600160a01b03601554166101e0820152604051918291826123c3565b0390f35b50346105db5760603660031901126105db57610b21612332565b6024356001600160a01b03811691828203610c6d5760443590610b426127a0565b8315610c5e5760ff60165416600481101580610c4a57600382149182159081610c3b575b50610c2c57610c185780610bdd575b80610bd1575b610bc25781610bb87f77023e19c7343ad491fd706c36335ca0e738340a91f29b1fd81e2673d44896c4936001600160a01b03602094169586612ebb565b604051908152a380f35b63d64d4b7160e01b8552600485fd5b50600454421115610b7b565b506001600160a01b037f0000000000000000000000000000000000000000000000000000000000000000166001600160a01b03821614610b75565b634e487b7160e01b86526021600452602486fd5b63662fcd5d60e01b8752600487fd5b9150506002879114155f610b66565b634e487b7160e01b87526021600452602487fd5b63e6c4247b60e01b8552600485fd5b8380fd5b50346105db57806003193601126105db57610b03610c8d61255e565b604051918291826123c3565b50346105db57806003193601126105db576020601f54604051908152f35b50346105db57806003193601126105db5760206040516001600160a01b037f0000000000000000000000000000000000000000000000000000000000000000168152f35b50346105db57806003193601126105db576020610704610d19612772565b610d21612781565b9061247e565b50346105db57806003193601126105db5760ff60165416604051906004811015610d5357602092508152f35b634e487b7160e01b83526021600452602483fd5b50346105db57806003193601126105db576020600554604051908152f35b50346105db57806003193601126105db576020601e54604051908152f35b50346105db5760403660031901126105db5760043567ffffffffffffffff811161064957610dd5903690600401612392565b5050610ddf612383565b5080f35b50346105db5760403660031901126105db5760043560243567ffffffffffffffff8111610e8d57610e18903690600401612392565b60ff60035416610e7e57610e2a6127c6565b6001600160a01b03601554168015610e6f578315610e605791610e59916106258561063396953090339061272a565b9033612c0e565b631f2a200560e01b8552600485fd5b6306a39ded60e41b8552600485fd5b63ab35696f60e01b8452600484fd5b8280fd5b50346105db57806003193601126105db5760405180602060195491828152018091601985527f944998273e477b495144fb8794c914197f3ccb46be2900f4698fd0ef743c969590855b818110610f3a5750505082610ef09103836124e6565b604051928392602084019060208552518091526040840192915b818110610f18575050500390f35b82516001600160a01b0316845285945060209384019390920191600101610f0a565b82546001600160a01b0316845260209093019260019283019201610eda565b50346105db57806003193601126105db5760206040516001600160a01b037f0000000000000000000000000000000000000000000000000000000000000000168152f35b50346105db57806003193601126105db576020601c54604051908152f35b50346105db57806003193601126105db5760206040516001600160a01b037f0000000000000000000000000000000000000000000000000000000000000000168152f35b50346105db57806003193601126105db576020600254604051908152f35b50346105db57806003193601126105db576001600160a01b036020915416604051908152f35b50346105db57806003193601126105db5761105c6127a0565b60035460ff81166110995760ff1916600117600355337f62e78cea01bee320cd4e420270b5ea74000d11b0c9f74754ebdbfc544b05a2588280a280f35b631785c68160e01b8252600482fd5b50346105db5760203660031901126105db57610ddf612374565b50346105db5760203660031901126105db576004356110df6127a0565b60ff601654166004811015610d535780611136575080601a5560035461ff0082151560081b169061ff001916176003557f90004c04698bc3322499a575ed3752dd4abf33e0a7294c06a787a0fe01bea9418280a280f35b63683f44bb60e11b8352600452602482fd5b50346105db5760203660031901126105db576004356111656127a0565b60ff601654166004811015610d53576003810361113657506004548111156111b9576020817ff1178b3c495407dc107b27908c56bee4f47c0295055c88d6110c026737fd2eb392600455604051908152a180f35b631da7447960e21b8252600482fd5b50346105db57806003193601126105db576111e16127a0565b806001600160a01b038154811981168355167f8be0079c531659141344cd1fd0a4f28419497f9722a3daafe3b4186f6b6457e08280a380f35b50346105db57806003193601126105db5760206040516001600160a01b037f0000000000000000000000000000000000000000000000000000000000000000168152f35b50346105db57806003193601126105db57602060ff600354166040519015158152f35b50346105db57806003193601126105db5761129a6127c6565b60ff60165416600481101561084a5760028114908115611368575b50156113595733815260176020526040812054801561134a57602091338152601783528060408120558160025410155f1461134257506112f78160025461248b565b6002555b61130581336127e6565b60405181815242838201527f73f04af9dcc582a923ec15d3eea990fe34adabfff2879e28d44572e01a54abb660403392a260018055604051908152f35b6002556112fb565b634625bdf760e01b8252600482fd5b631ba168fb60e11b8152600490fd5b60019150148061138c575b8061137f575b5f6112b5565b50601f5460085411611379565b506010544211611373565b50346105db57806003193601126105db57602060ff60035460081c166040519015158152f35b50346105db57806003193601126105db576113d66127c6565b60ff6003541661085e5760ff60165416600481101561084a5760038103610a1f5750600454421161166f5761140a33612659565b8015611661573382526017602052816040812055601c5481811061165257816114329161248b565b601c5561143d6128bb565b8181526012546020820181905280156116485761271061145f60609285612498565b04915b6114746040820193808552825161248b565b91829101528061160e575b50805190816114c9575b60208360405181815242838201527f30c2341ba3f2142e78472f07dcf018a42044ae1c2c2e7ce867b327257f07ef2b60403392a260018055604051908152f35b60405163095ea7b360e01b81526001600160a01b037f0000000000000000000000000000000000000000000000000000000000000000811660048301819052602483019490945285927f00000000000000000000000000000000000000000000000000000000000000009091169160208160448187875af18015611603576115d6575b50519260135491813b15610c6d57604051631bc6452160e31b81523060048201523360248201526001600160a01b03919091166044820152606481019490945242608485015260a4840191909152829060c490829084905af180156115cb576115b6575b80611489565b6115c18380926124e6565b61064957816115b0565b6040513d85823e3d90fd5b6115f79060203d6020116115fc575b6115ef81836124e6565b8101906128a3565b61154c565b503d6115e5565b6040513d86823e3d90fd5b61164290336001600160a01b037f000000000000000000000000000000000000000000000000000000000000000016612ebb565b5f61147f565b5060608391611462565b637222ae5760e11b8352600483fd5b62f3f86160e41b8252600482fd5b632253b77960e01b8152600490fd5b5034611cda575f366003190112611cda576116976127a0565b60ff60035416610350576116a96127c6565b60ff60165416600481101561033c576001810361032a5750601054421115611f0857601f5460085411611ef957600360ff1960165416176016556127106116f5601f54600d5490612498565b04801590811580611838575b5061175e9150612710611757601f548261173c7f00000000000000000000000000000000000000000000000000000000000000008093612498565b04806117d3575b50611751601f54948561248b565b93612498565b049061248b565b60055562ed4e004201908142116117bf575060045561177b6128f0565b601f546040519081524260208201527f616c9469db50815ae0f1d0a020d9fc9060da7c57f03559afb0d4ebdaa0a3a05e60403392a260018055602060405160018152f35b634e487b7160e01b81526011600452602490fd5b7f0f5237766fb8b2313e23d359023b2fe32aa11ff9048495b861341a994d9114bc60206001600160a01b037f000000000000000000000000000000000000000000000000000000000000000061182985826127e6565b6040519485521692a25f611743565b601e549290611ef1575b611ee25760405160c0810181811067ffffffffffffffff8211176101e6576040526020810160408201915f835260608101905f825260808101935f855260a08201965f8852868352808552600e5461271003906127108211611d91576118b76127106118af848294612498565b049289612498565b04845281526015546001600160a01b031680611edc57507f0000000000000000000000000000000000000000000000000000000000000000935b60405163e6a4390560e01b81526001600160a01b037f0000000000000000000000000000000000000000000000000000000000000000811660048301819052878216602484015296907f000000000000000000000000000000000000000000000000000000000000000016602083604481845afa928315611cfb575f93611ebb575b506001600160a01b03831615611e05575b50506001600160a01b0316938415611df657938652805160405163095ea7b360e01b81526001600160a01b037f0000000000000000000000000000000000000000000000000000000000000000166004820181905260248201929092529490936020866044815f8b5af1958615611cfb57602496611dd9575b5060206001600160a01b03895116604051978880926370a0823160e01b82523060048301525afa958615611cfb575f96611da5575b505191519251905192610258420190814211611d915760609360c492604051968795869463f305d71960e01b86528c600487015260248601526044850152606484015230608484015260a4830152865af19081611d66575b50611ae557611a97612fe7565b6308c379a014611ab1575b6376d097f360e11b5f5260045ffd5b611ab9613002565b80611ac45750611aa2565b604051633c10bbab60e11b8152908190611ae19060048301613076565b0390fd5b5f926044602092604051958693849263095ea7b360e01b845260048401528160248401525af1918215611cfb57602492611d49575b5060206001600160a01b03845116604051938480926370a0823160e01b82523060048301525afa8015611cfb575f90611d15575b611b58925061248b565b80845215611d06576001600160a01b03905116915191611b7a6011544261247e565b60405163095ea7b360e01b81526001600160a01b037f0000000000000000000000000000000000000000000000000000000000000000166004820181905260248201869052919491906020816044815f885af18015611cfb57611cde575b506001600160a01b035f5416813b15611cda575f9160848392604051948593849263042964f560e11b84528960048501528860248501528b604485015260648401525af19081611cc5575b50611c7b5784611c31612fe7565b6308c379a014611c4b575b63a14cffc560e01b8152600490fd5b611c53613002565b80611c5e5750611c3c565b604051630822993160e31b8152908190611ae19060048301613076565b60407fac1d76749e5447b7b16f5ab61447e1bd502f3bb4807af3b28e620d1700a6ee459161175e9582519182526020820152a2611cbc601e54601c5461248b565b601c555f611701565b611cd29196505f906124e6565b5f945f611c23565b5f80fd5b611cf69060203d6020116115fc576115ef81836124e6565b611bd8565b6040513d5f823e3d90fd5b630bdc07d160e21b5f5260045ffd5b506020823d602011611d41575b81611d2f602093836124e6565b81010312611cda57611b589151611b4e565b3d9150611d22565b611d619060203d6020116115fc576115ef81836124e6565b611b1a565b606090813d8311611d8a575b611d7c81836124e6565b81010312611cda575f611a8a565b503d611d72565b634e487b7160e01b5f52601160045260245ffd5b9095506020813d602011611dd1575b81611dc1602093836124e6565b81010312611cda5751945f611a32565b3d9150611db4565b611df19060203d6020116115fc576115ef81836124e6565b6119fd565b63284dbaed60e01b5f5260045ffd5b6040516364e329cb60e11b81526001600160a01b03898116600483015283166024820152919a97999798969594939250602090829060449082905f905af15f9181611e8a575b50611e70576001600160a01b038a8a634fe1e92b60e11b5f526004521660245260445ffd5b6001600160a01b039192939495979950979597905f611984565b611ead91925060203d602011611eb4575b611ea581836124e6565b810190612fc8565b905f611e4b565b503d611e9b565b611ed591935060203d602011611eb457611ea581836124e6565b915f611973565b936118f1565b63d69ebc4560e01b5f5260045ffd5b508115611842565b632bdc91ad60e01b5f5260045ffd5b63dfc7e2e560e01b5f5260045ffd5b34611cda575f366003190112611cda5760206040517f00000000000000000000000000000000000000000000000000000000000000008152f35b34611cda576020366003190112611cda576001600160a01b03611f72612332565b165f526017602052602060405f2054604051908152f35b34611cda575f366003190112611cda5760206040516001600160a01b037f0000000000000000000000000000000000000000000000000000000000000000168152f35b34611cda575f366003190112611cda57611fe46127a0565b60035460ff81161561201e5760ff1916600355337f5db9ee0a495bf2e6ff9c91a7834c1ba4fdd244a5e8aa4e537bd38aeae4b073aa5f80a2005b636cd6020160e01b5f5260045ffd5b34611cda575f366003190112611cda576120456127a0565b61204d6127c6565b60ff60165416600481101561033c576003810361032a5760055480156120ad575f60055561207b81336127e6565b6040519081527f7084f5476618d8e60b11ef0d7d3f06914655adb8793e28ff7f018d4c76d505d560203392a260018055005b6367e3990d60e01b5f5260045ffd5b34611cda576020366003190112611cda57600435601954811015611cda576001600160a01b036120ed602092612348565b90549060031b1c16604051908152f35b34611cda575f366003190112611cda576020600454604051908152f35b34611cda575f366003190112611cda576020601d54604051908152f35b34611cda575f366003190112611cda576020601a54604051908152f35b34611cda575f366003190112611cda576020601954604051908152f35b34611cda576020366003190112611cda576004356001600160a01b037f000000000000000000000000000000000000000000000000000000000000000016330361225a5760ff600354166103505760ff60165416600481101561033c578061032a5750801561023957600f54421015610310576122198130336001600160a01b037f00000000000000000000000000000000000000000000000000000000000000001661272a565b61222461099b612772565b908181106122455780602091601c556109d1600160ff196016541617601655565b630d25268d60e01b5f5260045260245260445ffd5b631966391b60e11b5f5260045ffd5b34611cda575f366003190112611cda576020601f54604051908152f35b34611cda575f366003190112611cda57600654600754600854600954600a54600b54600c54600d54600e5490600f54926010549460115496601254988d6013549b6014549d6015546001600160a01b03169f8352602083015260408201526060015260808d015260a08c015260c08b015260e08a01526101008901526101208801526101408701526101608601526101808501526101a08401526101c08301526101e082015261020090f35b600435906001600160a01b0382168203611cda57565b6019548110156123605760195f5260205f2001905f90565b634e487b7160e01b5f52603260045260245ffd5b600435908115158203611cda57565b602435908115158203611cda57565b9181601f84011215611cda5782359167ffffffffffffffff8311611cda576020808501948460051b010111611cda57565b9190916101e06001600160a01b0381610200840195805185526020810151602086015260408101516040860152606081015160608601526080810151608086015260a081015160a086015260c081015160c086015260e081015160e08601526101008101516101008601526101208101516101208601526101408101516101408601526101608101516101608601526101808101516101808601526101a08101516101a08601526101c08101516101c0860152015116910152565b91908201809211611d9157565b91908203918211611d9157565b81810292918115918404141715611d9157565b81156124b5570490565b634e487b7160e01b5f52601260045260245ffd5b610200810190811067ffffffffffffffff8211176101e657604052565b90601f8019910116810190811067ffffffffffffffff8211176101e657604052565b9291909267ffffffffffffffff84116101e6578360051b906020604051612531828501826124e6565b8096815201918101928311611cda57905b82821061254e57505050565b8135815260209182019101612542565b6040519061256b826124c9565b5f6101e0838281528260208201528260408201528260608201528260808201528260a08201528260c08201528260e08201528261010082015282610120820152826101408201528261016082015282610180820152826101a0820152826101c08201520152565b601b5490815f5b8381106125e857505050505f90565b8181101561236057601b5f527f3ad8aa4f87544323a9d1e5dd902f40c356527a7955687113db5f9a85ad579dc18101548314612626576001016125d9565b50505050600190565b90816020910312611cda575160ff81168103611cda5790565b60ff16604d8111611d9157600a0a90565b6001600160a01b03165f52601760205260405f2054801561272557600b5461268091612498565b60405163313ce56760e01b8152906020826004817f00000000000000000000000000000000000000000000000000000000000000006001600160a01b03165afa908115611cfb576126df6126e5926126f3945f916126f6575b50612648565b90612498565b6126ed612ef7565b906124ab565b90565b612718915060203d60201161271e575b61271081836124e6565b81019061262f565b5f6126d9565b503d612706565b505f90565b9091926001600160a01b036127709481604051956323b872dd60e01b602088015216602486015216604484015260648301526064825261276b6084836124e6565b612f74565b565b612680600754600b5490612498565b612680612710612796600754600d5490612498565b04600c5490612498565b6001600160a01b035f541633036127b357565b63118cdaa760e01b5f523360045260245ffd5b6002600154146127d7576002600155565b633ee5aeb560e01b5f5260045ffd5b811561289f576015546001600160a01b031680612894575081471061287d575f8080936001600160a01b038294165af13d15612875573d9067ffffffffffffffff82116101e65760405191612845601f8201601f1916602001846124e6565b82523d5f602084013e5b156128575750565b80511561286657805190602001fd5b63d6bda27560e01b5f5260045ffd5b60609061284f565b504763cf47918160e01b5f5260045260245260445ffd5b906127709291612ebb565b5050565b90816020910312611cda57518015158103611cda5790565b604051906080820182811067ffffffffffffffff8211176101e6576040525f6060838281528260208201528260408201520152565b6128f86128bb565b601f549061290a5f92600b5490612498565b60405163313ce56760e01b81527f00000000000000000000000000000000000000000000000000000000000000006001600160a01b031691602082600481865afa908115611cfb576126df6126e592612969945f916126f65750612648565b808352601d54809111612c06575b61298283518261248b565b6020840190815260606129d361299b601e54809561247e565b92601c54948486956129ad838861247e565b1115612bfd576129c06129c5928761247e565b61248b565b905b8160408901525161247e565b94019380855211612bf5575b82518015612bee576129f09161248b565b601c5560145480612a4657506001600160a01b037fbf95d20e2a316bd9c3e2efd35653a948438013277330af4b3fee49455a0e637292612a3860209383875416835191612ebb565b5193541692604051908152a2565b600103612aab5790612aa17fa23a441fdb6a3236d37796809dafdaba773a27be440ae9746e9b9f8cf2c2106e9360209383516040519263a9059cbb60e01b87850152602484015260448301526044825261276b6064836124e6565b51604051908152a1565b815160405163095ea7b360e01b81526001600160a01b037f0000000000000000000000000000000000000000000000000000000000000000166004820181905260248201929092529091906020816044815f865af18015611cfb57612bd1575b506001600160a01b035f541683519260135493813b15611cda57604051631bc6452160e31b81523060048201526001600160a01b039384166024820152939092166044840152606483019190915242608483015260a4820192909252905f90829060c490829084905af18015611cfb57612bbb575b5060206001600160a01b037fffbab51a97c2620266485de4ca0e9acd7a3e7412812e256ff5d6831fa5dacaa9925193541692604051908152a2565b612bc89192505f906124e6565b5f906020612b80565b612be99060203d6020116115fc576115ef81836124e6565b612b0b565b5050505050565b8083526129df565b50505f906129c7565b808352612977565b60ff60165416600481101561033c576001810361032a5750600f5442108015612eb0575b610310576001600160a01b0381169283156103015760ff60035460081c169182612e22575b5050610272576015546001600160a01b031615908115612e09573415610239575b8115612e025734915b601f5492612c8f818561247e565b6007541061022357600954811061021457612cb690855f52601760205260405f205461247e565b600a54106102055715612df75750612ccf34809261247e565b601f55612cde8160025461247e565b600255815f52601860205260ff60405f20541615612d77575b60407f08ce00466abd322339ad31e43307a70a872f8c32a13d8b24ed85948ba75ed1b391835f526017602052815f20612d3182825461247e565b9055837f2499a5330ab0979cc612135e7883ebc3cd5c9f7a8508f042540c34723348f63260208451848152a26001600160a01b03601554161582519182526020820152a2565b815f52601860205260405f20600160ff19825416179055601954680100000000000000008110156101e6577f08ce00466abd322339ad31e43307a70a872f8c32a13d8b24ed85948ba75ed1b391612dd682600160409401601955612348565b81549060031b906001600160a01b0387831b921b1916179055915050612cf7565b612ccf90809261247e565b8091612c81565b346102645780612c7857631f2a200560e01b5f5260045ffd5b9390949150601a549360405160208101916bffffffffffffffffffffffff199060601b16825260148152612e576034826124e6565b519020925f935b8651851015612ea05760208560051b88010151908181105f14612e8f575f52602052600160405f205b940193612e5e565b905f52602052600160405f20612e87565b9194929550925014155f80612c57565b506010544211612c32565b60405163a9059cbb60e01b60208201526001600160a01b039290921660248301526044808301939093529181526127709161276b6064836124e6565b6001600160a01b03601554168015612f675760206004916040519283809263313ce56760e01b82525afa5f9181612f46575b50612f3d57631da50fef60e01b5f5260045ffd5b6126f390612648565b612f6091925060203d60201161271e5761271081836124e6565b905f612f29565b50670de0b6b3a764000090565b905f602091828151910182855af115611cfb575f513d612fbf57506001600160a01b0381163b155b612fa35750565b6001600160a01b0390635274afe760e01b5f521660045260245ffd5b60011415612f9c565b90816020910312611cda57516001600160a01b0381168103611cda5790565b5f9060033d11612ff357565b905060045f803e5f5160e01c90565b5f60443d106126f3576040513d600319016004823e8051913d602484011167ffffffffffffffff841117613070578282019283519167ffffffffffffffff8311613068573d8401600319018584016020011161306857506126f3929101602001906124e6565b949350505050565b92915050565b602060409281835280519182918282860152018484015e5f828201840152601f01601f191601019056fea2646970667358221220149856b9a79ec1855c17136e83aea6defd600e2894acedcf7c77d9360786fff864736f6c634300081c0033","linkReferences":{}},"methodIdentifiers":{"BASIS_POINTS()":"e1f1c4a7","calculateTotalTokensNeeded()":"c1d41e95","cancel()":"ea8a1af0","claim()":"4e71d92d","claimDeadline()":"3ba86c44","contribute(bytes32[])":"f7bdc4f7","contributeStablecoin(uint256,bytes32[])":"af1ad48b","contributions(address)":"42e94c90","contributors(uint256)":"3cb5d100","deposit()":"d0e30db0","extendClaimDeadline(uint256)":"7abbc150","factory()":"c45a0155","finalize()":"4bb278f3","getContribution(address)":"21eff7fc","getContributorCount()":"253da8bd","getContributors()":"af157c19","getOptions()":"cc2ee196","getPresaleOptions()":"d02c880a","getTotalContributed()":"18e4274d","houseAddress()":"d7cee31e","housePercentage()":"49d2e277","initializeDeposit(uint256)":"1e8028f1","isAllowedLiquidityBps(uint256)":"ea4a9c85","liquidityLocker()":"9759164a","merkleRoot()":"2eb4a7ab","options()":"1069143a","owner()":"8da5cb5b","ownerBalance()":"bedcf003","pause()":"8456cb59","paused()":"5c975abb","refund()":"590e1ae3","renounceOwnership()":"715018a6","rescueTokens(address,address,uint256)":"cea9d26f","setMerkleRoot(bytes32)":"7cb64759","state()":"c19d93fb","toggleWhitelist(bool)":"80e3f1ad","token()":"fc0c546a","tokenBalance()":"9e1a4d19","tokensClaimable()":"31f684c0","tokensLiquidity()":"b57b92a5","totalRaised()":"c5c4744c","totalRefundable()":"91a9207b","transferOwnership(address)":"f2fde38b","uniswapV2Router02()":"a7c6402c","unpause()":"3f4ba83a","updateWhitelist(address[],bool)":"aff177ca","userTokens(address)":"ed498fa8","vestingContract()":"5e6f6045","weth()":"3fc8cef3","whitelistEnabled()":"51fb012d","withdraw()":"3ccfd60b"},"id":44}