{"abi":[{"type":"constructor","inputs":[{"name":"_weth","type":"address","internalType":"address"},{"name":"_token","type":"address","internalType":"address"},{"name":"_uniswapV2Router02","type":"address","internalType":"address"},{"name":"_options","type":"tuple","internalType":"struct Presale.PresaleOptions","components":[{"name":"tokenDeposit","type":"uint256","internalType":"uint256"},{"name":"hardCap","type":"uint256","internalType":"uint256"},{"name":"softCap","type":"uint256","internalType":"uint256"},{"name":"min","type":"uint256","internalType":"uint256"},{"name":"max","type":"uint256","internalType":"uint256"},{"name":"presaleRate","type":"uint256","internalType":"uint256"},{"name":"listingRate","type":"uint256","internalType":"uint256"},{"name":"liquidityBps","type":"uint256","internalType":"uint256"},{"name":"slippageBps","type":"uint256","internalType":"uint256"},{"name":"start","type":"uint256","internalType":"uint256"},{"name":"end","type":"uint256","internalType":"uint256"},{"name":"lockupDuration","type":"uint256","internalType":"uint256"},{"name":"vestingPercentage","type":"uint256","internalType":"uint256"},{"name":"vestingDuration","type":"uint256","internalType":"uint256"},{"name":"leftoverTokenOption","type":"uint256","internalType":"uint256"},{"name":"currency","type":"address","internalType":"address"}]},{"name":"_creator","type":"address","internalType":"address"},{"name":"_liquidityLocker","type":"address","internalType":"address"},{"name":"_vestingContract","type":"address","internalType":"address"},{"name":"_housePercentage","type":"uint256","internalType":"uint256"},{"name":"_houseAddress","type":"address","internalType":"address"}],"stateMutability":"nonpayable"},{"type":"receive","stateMutability":"payable"},{"type":"function","name":"BASIS_POINTS","inputs":[],"outputs":[{"name":"","type":"uint256","internalType":"uint256"}],"stateMutability":"view"},{"type":"function","name":"calculateTotalTokensNeeded","inputs":[],"outputs":[{"name":"","type":"uint256","internalType":"uint256"}],"stateMutability":"view"},{"type":"function","name":"cancel","inputs":[],"outputs":[{"name":"","type":"bool","internalType":"bool"}],"stateMutability":"nonpayable"},{"type":"function","name":"claim","inputs":[],"outputs":[{"name":"","type":"uint256","internalType":"uint256"}],"stateMutability":"nonpayable"},{"type":"function","name":"claimDeadline","inputs":[],"outputs":[{"name":"","type":"uint256","internalType":"uint256"}],"stateMutability":"view"},{"type":"function","name":"contribute","inputs":[{"name":"_merkleProof","type":"bytes32[]","internalType":"bytes32[]"}],"outputs":[],"stateMutability":"payable"},{"type":"function","name":"contributeStablecoin","inputs":[{"name":"_amount","type":"uint256","internalType":"uint256"},{"name":"_merkleProof","type":"bytes32[]","internalType":"bytes32[]"}],"outputs":[],"stateMutability":"nonpayable"},{"type":"function","name":"contributions","inputs":[{"name":"","type":"address","internalType":"address"}],"outputs":[{"name":"","type":"uint256","internalType":"uint256"}],"stateMutability":"view"},{"type":"function","name":"contributors","inputs":[{"name":"","type":"uint256","internalType":"uint256"}],"outputs":[{"name":"","type":"address","internalType":"address"}],"stateMutability":"view"},{"type":"function","name":"deposit","inputs":[],"outputs":[{"name":"","type":"uint256","internalType":"uint256"}],"stateMutability":"nonpayable"},{"type":"function","name":"extendClaimDeadline","inputs":[{"name":"_newDeadline","type":"uint256","internalType":"uint256"}],"outputs":[],"stateMutability":"nonpayable"},{"type":"function","name":"factory","inputs":[],"outputs":[{"name":"","type":"address","internalType":"address"}],"stateMutability":"view"},{"type":"function","name":"finalize","inputs":[],"outputs":[{"name":"","type":"bool","internalType":"bool"}],"stateMutability":"nonpayable"},{"type":"function","name":"getContribution","inputs":[{"name":"_contributor","type":"address","internalType":"address"}],"outputs":[{"name":"","type":"uint256","internalType":"uint256"}],"stateMutability":"view"},{"type":"function","name":"getContributorCount","inputs":[],"outputs":[{"name":"","type":"uint256","internalType":"uint256"}],"stateMutability":"view"},{"type":"function","name":"getContributors","inputs":[],"outputs":[{"name":"","type":"address[]","internalType":"address[]"}],"stateMutability":"view"},{"type":"function","name":"getOptions","inputs":[],"outputs":[{"name":"","type":"tuple","internalType":"struct Presale.PresaleOptions","components":[{"name":"tokenDeposit","type":"uint256","internalType":"uint256"},{"name":"hardCap","type":"uint256","internalType":"uint256"},{"name":"softCap","type":"uint256","internalType":"uint256"},{"name":"min","type":"uint256","internalType":"uint256"},{"name":"max","type":"uint256","internalType":"uint256"},{"name":"presaleRate","type":"uint256","internalType":"uint256"},{"name":"listingRate","type":"uint256","internalType":"uint256"},{"name":"liquidityBps","type":"uint256","internalType":"uint256"},{"name":"slippageBps","type":"uint256","internalType":"uint256"},{"name":"start","type":"uint256","internalType":"uint256"},{"name":"end","type":"uint256","internalType":"uint256"},{"name":"lockupDuration","type":"uint256","internalType":"uint256"},{"name":"vestingPercentage","type":"uint256","internalType":"uint256"},{"name":"vestingDuration","type":"uint256","internalType":"uint256"},{"name":"leftoverTokenOption","type":"uint256","internalType":"uint256"},{"name":"currency","type":"address","internalType":"address"}]}],"stateMutability":"view"},{"type":"function","name":"getPresaleOptions","inputs":[],"outputs":[{"name":"","type":"tuple","internalType":"struct Presale.PresaleOptions","components":[{"name":"tokenDeposit","type":"uint256","internalType":"uint256"},{"name":"hardCap","type":"uint256","internalType":"uint256"},{"name":"softCap","type":"uint256","internalType":"uint256"},{"name":"min","type":"uint256","internalType":"uint256"},{"name":"max","type":"uint256","internalType":"uint256"},{"name":"presaleRate","type":"uint256","internalType":"uint256"},{"name":"listingRate","type":"uint256","internalType":"uint256"},{"name":"liquidityBps","type":"uint256","internalType":"uint256"},{"name":"slippageBps","type":"uint256","internalType":"uint256"},{"name":"start","type":"uint256","internalType":"uint256"},{"name":"end","type":"uint256","internalType":"uint256"},{"name":"lockupDuration","type":"uint256","internalType":"uint256"},{"name":"vestingPercentage","type":"uint256","internalType":"uint256"},{"name":"vestingDuration","type":"uint256","internalType":"uint256"},{"name":"leftoverTokenOption","type":"uint256","internalType":"uint256"},{"name":"currency","type":"address","internalType":"address"}]}],"stateMutability":"view"},{"type":"function","name":"getTotalContributed","inputs":[],"outputs":[{"name":"","type":"uint256","internalType":"uint256"}],"stateMutability":"view"},{"type":"function","name":"houseAddress","inputs":[],"outputs":[{"name":"","type":"address","internalType":"address"}],"stateMutability":"view"},{"type":"function","name":"housePercentage","inputs":[],"outputs":[{"name":"","type":"uint256","internalType":"uint256"}],"stateMutability":"view"},{"type":"function","name":"isAllowedLiquidityBps","inputs":[{"name":"_bps","type":"uint256","internalType":"uint256"}],"outputs":[{"name":"","type":"bool","internalType":"bool"}],"stateMutability":"view"},{"type":"function","name":"liquidityLocker","inputs":[],"outputs":[{"name":"","type":"address","internalType":"contract LiquidityLocker"}],"stateMutability":"view"},{"type":"function","name":"merkleRoot","inputs":[],"outputs":[{"name":"","type":"bytes32","internalType":"bytes32"}],"stateMutability":"view"},{"type":"function","name":"options","inputs":[],"outputs":[{"name":"tokenDeposit","type":"uint256","internalType":"uint256"},{"name":"hardCap","type":"uint256","internalType":"uint256"},{"name":"softCap","type":"uint256","internalType":"uint256"},{"name":"min","type":"uint256","internalType":"uint256"},{"name":"max","type":"uint256","internalType":"uint256"},{"name":"presaleRate","type":"uint256","internalType":"uint256"},{"name":"listingRate","type":"uint256","internalType":"uint256"},{"name":"liquidityBps","type":"uint256","internalType":"uint256"},{"name":"slippageBps","type":"uint256","internalType":"uint256"},{"name":"start","type":"uint256","internalType":"uint256"},{"name":"end","type":"uint256","internalType":"uint256"},{"name":"lockupDuration","type":"uint256","internalType":"uint256"},{"name":"vestingPercentage","type":"uint256","internalType":"uint256"},{"name":"vestingDuration","type":"uint256","internalType":"uint256"},{"name":"leftoverTokenOption","type":"uint256","internalType":"uint256"},{"name":"currency","type":"address","internalType":"address"}],"stateMutability":"view"},{"type":"function","name":"owner","inputs":[],"outputs":[{"name":"","type":"address","internalType":"address"}],"stateMutability":"view"},{"type":"function","name":"ownerBalance","inputs":[],"outputs":[{"name":"","type":"uint256","internalType":"uint256"}],"stateMutability":"view"},{"type":"function","name":"pause","inputs":[],"outputs":[],"stateMutability":"nonpayable"},{"type":"function","name":"paused","inputs":[],"outputs":[{"name":"","type":"bool","internalType":"bool"}],"stateMutability":"view"},{"type":"function","name":"refund","inputs":[],"outputs":[{"name":"","type":"uint256","internalType":"uint256"}],"stateMutability":"nonpayable"},{"type":"function","name":"renounceOwnership","inputs":[],"outputs":[],"stateMutability":"nonpayable"},{"type":"function","name":"rescueTokens","inputs":[{"name":"_erc20Token","type":"address","internalType":"address"},{"name":"_to","type":"address","internalType":"address"},{"name":"_amount","type":"uint256","internalType":"uint256"}],"outputs":[],"stateMutability":"nonpayable"},{"type":"function","name":"setMerkleRoot","inputs":[{"name":"_merkleRoot","type":"bytes32","internalType":"bytes32"}],"outputs":[],"stateMutability":"nonpayable"},{"type":"function","name":"state","inputs":[],"outputs":[{"name":"","type":"uint8","internalType":"enum Presale.PresaleState"}],"stateMutability":"view"},{"type":"function","name":"toggleWhitelist","inputs":[{"name":"enabled","type":"bool","internalType":"bool"}],"outputs":[],"stateMutability":"nonpayable"},{"type":"function","name":"token","inputs":[],"outputs":[{"name":"","type":"address","internalType":"contract ERC20"}],"stateMutability":"view"},{"type":"function","name":"tokenBalance","inputs":[],"outputs":[{"name":"","type":"uint256","internalType":"uint256"}],"stateMutability":"view"},{"type":"function","name":"tokensClaimable","inputs":[],"outputs":[{"name":"","type":"uint256","internalType":"uint256"}],"stateMutability":"view"},{"type":"function","name":"tokensLiquidity","inputs":[],"outputs":[{"name":"","type":"uint256","internalType":"uint256"}],"stateMutability":"view"},{"type":"function","name":"totalRaised","inputs":[],"outputs":[{"name":"","type":"uint256","internalType":"uint256"}],"stateMutability":"view"},{"type":"function","name":"totalRefundable","inputs":[],"outputs":[{"name":"","type":"uint256","internalType":"uint256"}],"stateMutability":"view"},{"type":"function","name":"transferOwnership","inputs":[{"name":"newOwner","type":"address","internalType":"address"}],"outputs":[],"stateMutability":"nonpayable"},{"type":"function","name":"uniswapV2Router02","inputs":[],"outputs":[{"name":"","type":"address","internalType":"contract IUniswapV2Router02"}],"stateMutability":"view"},{"type":"function","name":"unpause","inputs":[],"outputs":[],"stateMutability":"nonpayable"},{"type":"function","name":"updateWhitelist","inputs":[{"name":"addresses","type":"address[]","internalType":"address[]"},{"name":"add","type":"bool","internalType":"bool"}],"outputs":[],"stateMutability":"nonpayable"},{"type":"function","name":"userTokens","inputs":[{"name":"_contributor","type":"address","internalType":"address"}],"outputs":[{"name":"","type":"uint256","internalType":"uint256"}],"stateMutability":"view"},{"type":"function","name":"vestingContract","inputs":[],"outputs":[{"name":"","type":"address","internalType":"contract Vesting"}],"stateMutability":"view"},{"type":"function","name":"weth","inputs":[],"outputs":[{"name":"","type":"address","internalType":"address"}],"stateMutability":"view"},{"type":"function","name":"whitelistEnabled","inputs":[],"outputs":[{"name":"","type":"bool","internalType":"bool"}],"stateMutability":"view"},{"type":"function","name":"withdraw","inputs":[],"outputs":[],"stateMutability":"nonpayable"},{"type":"event","name":"Cancel","inputs":[{"name":"owner","type":"address","indexed":true,"internalType":"address"},{"name":"timestamp","type":"uint256","indexed":false,"internalType":"uint256"}],"anonymous":false},{"type":"event","name":"ClaimDeadlineExtended","inputs":[{"name":"newDeadline","type":"uint256","indexed":false,"internalType":"uint256"}],"anonymous":false},{"type":"event","name":"Contribution","inputs":[{"name":"contributor","type":"address","indexed":true,"internalType":"address"},{"name":"amount","type":"uint256","indexed":false,"internalType":"uint256"},{"name":"isETH","type":"bool","indexed":false,"internalType":"bool"}],"anonymous":false},{"type":"event","name":"Deposit","inputs":[{"name":"sender","type":"address","indexed":true,"internalType":"address"},{"name":"amount","type":"uint256","indexed":false,"internalType":"uint256"},{"name":"timestamp","type":"uint256","indexed":false,"internalType":"uint256"}],"anonymous":false},{"type":"event","name":"Finalized","inputs":[{"name":"owner","type":"address","indexed":true,"internalType":"address"},{"name":"amountRaised","type":"uint256","indexed":false,"internalType":"uint256"},{"name":"timestamp","type":"uint256","indexed":false,"internalType":"uint256"}],"anonymous":false},{"type":"event","name":"HouseFundsDistributed","inputs":[{"name":"house","type":"address","indexed":true,"internalType":"address"},{"name":"amount","type":"uint256","indexed":false,"internalType":"uint256"}],"anonymous":false},{"type":"event","name":"LeftoverTokensBurned","inputs":[{"name":"amount","type":"uint256","indexed":false,"internalType":"uint256"}],"anonymous":false},{"type":"event","name":"LeftoverTokensReturned","inputs":[{"name":"amount","type":"uint256","indexed":false,"internalType":"uint256"},{"name":"beneficiary","type":"address","indexed":true,"internalType":"address"}],"anonymous":false},{"type":"event","name":"LeftoverTokensVested","inputs":[{"name":"amount","type":"uint256","indexed":false,"internalType":"uint256"},{"name":"beneficiary","type":"address","indexed":true,"internalType":"address"}],"anonymous":false},{"type":"event","name":"LiquidityAdded","inputs":[{"name":"pair","type":"address","indexed":true,"internalType":"address"},{"name":"lpAmount","type":"uint256","indexed":false,"internalType":"uint256"},{"name":"unlockTime","type":"uint256","indexed":false,"internalType":"uint256"}],"anonymous":false},{"type":"event","name":"MerkleRootUpdated","inputs":[{"name":"_merkleRoot","type":"bytes32","indexed":true,"internalType":"bytes32"}],"anonymous":false},{"type":"event","name":"OwnershipTransferred","inputs":[{"name":"previousOwner","type":"address","indexed":true,"internalType":"address"},{"name":"newOwner","type":"address","indexed":true,"internalType":"address"}],"anonymous":false},{"type":"event","name":"Paused","inputs":[{"name":"account","type":"address","indexed":true,"internalType":"address"}],"anonymous":false},{"type":"event","name":"PresaleCreated","inputs":[{"name":"creator","type":"address","indexed":true,"internalType":"address"},{"name":"presale","type":"address","indexed":true,"internalType":"address"},{"name":"token","type":"address","indexed":true,"internalType":"address"},{"name":"start","type":"uint256","indexed":false,"internalType":"uint256"},{"name":"end","type":"uint256","indexed":false,"internalType":"uint256"}],"anonymous":false},{"type":"event","name":"Purchase","inputs":[{"name":"buyer","type":"address","indexed":true,"internalType":"address"},{"name":"amount","type":"uint256","indexed":false,"internalType":"uint256"}],"anonymous":false},{"type":"event","name":"Refund","inputs":[{"name":"contributor","type":"address","indexed":true,"internalType":"address"},{"name":"amount","type":"uint256","indexed":false,"internalType":"uint256"},{"name":"timestamp","type":"uint256","indexed":false,"internalType":"uint256"}],"anonymous":false},{"type":"event","name":"TokenClaim","inputs":[{"name":"claimer","type":"address","indexed":true,"internalType":"address"},{"name":"amount","type":"uint256","indexed":false,"internalType":"uint256"},{"name":"timestamp","type":"uint256","indexed":false,"internalType":"uint256"}],"anonymous":false},{"type":"event","name":"TokensRescued","inputs":[{"name":"token","type":"address","indexed":true,"internalType":"address"},{"name":"to","type":"address","indexed":true,"internalType":"address"},{"name":"amount","type":"uint256","indexed":false,"internalType":"uint256"}],"anonymous":false},{"type":"event","name":"Unpaused","inputs":[{"name":"account","type":"address","indexed":true,"internalType":"address"}],"anonymous":false},{"type":"event","name":"WhitelistToggled","inputs":[{"name":"enabled","type":"bool","indexed":false,"internalType":"bool"}],"anonymous":false},{"type":"event","name":"WhitelistUpdated","inputs":[{"name":"contributor","type":"address","indexed":true,"internalType":"address"},{"name":"added","type":"bool","indexed":false,"internalType":"bool"}],"anonymous":false},{"type":"event","name":"Withdrawn","inputs":[{"name":"owner","type":"address","indexed":true,"internalType":"address"},{"name":"amount","type":"uint256","indexed":false,"internalType":"uint256"}],"anonymous":false},{"type":"error","name":"AlreadyPaused","inputs":[]},{"type":"error","name":"BatchTooLarge","inputs":[]},{"type":"error","name":"BelowMinimumContribution","inputs":[]},{"type":"error","name":"CannotRescueBeforeFinalization","inputs":[]},{"type":"error","name":"CannotRescueBeforeFinalizationOrCancellation","inputs":[]},{"type":"error","name":"CannotRescuePresaleTokens","inputs":[]},{"type":"error","name":"ClaimPeriodExpired","inputs":[]},{"type":"error","name":"ContractPaused","inputs":[]},{"type":"error","name":"DeprecatedFunction","inputs":[]},{"type":"error","name":"ETHNotAccepted","inputs":[]},{"type":"error","name":"ExceedsMaximumContribution","inputs":[]},{"type":"error","name":"FailedCall","inputs":[]},{"type":"error","name":"HardCapExceed","inputs":[]},{"type":"error","name":"HardCapExceeded","inputs":[]},{"type":"error","name":"InsufficientBalance","inputs":[{"name":"balance","type":"uint256","internalType":"uint256"},{"name":"needed","type":"uint256","internalType":"uint256"}]},{"type":"error","name":"InsufficientContractBalance","inputs":[]},{"type":"error","name":"InsufficientTokenBalance","inputs":[]},{"type":"error","name":"InsufficientTokenDeposit","inputs":[{"name":"amount","type":"uint256","internalType":"uint256"},{"name":"totalTokensNeeded","type":"uint256","internalType":"uint256"}]},{"type":"error","name":"InvalidAddress","inputs":[]},{"type":"error","name":"InvalidCapSettings","inputs":[]},{"type":"error","name":"InvalidCapValue","inputs":[]},{"type":"error","name":"InvalidContributionLimits","inputs":[]},{"type":"error","name":"InvalidContributorAddress","inputs":[]},{"type":"error","name":"InvalidCurrencyDecimals","inputs":[]},{"type":"error","name":"InvalidDeadline","inputs":[]},{"type":"error","name":"InvalidHouseAddress","inputs":[]},{"type":"error","name":"InvalidHouseConfiguration","inputs":[]},{"type":"error","name":"InvalidHousePercentage","inputs":[]},{"type":"error","name":"InvalidInitialization","inputs":[]},{"type":"error","name":"InvalidInitializationParameters","inputs":[]},{"type":"error","name":"InvalidLeftoverTokenOption","inputs":[]},{"type":"error","name":"InvalidLimitValue","inputs":[]},{"type":"error","name":"InvalidLiquidityAmounts","inputs":[]},{"type":"error","name":"InvalidLiquidityBps","inputs":[]},{"type":"error","name":"InvalidLiquidityValue","inputs":[]},{"type":"error","name":"InvalidLockupDuration","inputs":[]},{"type":"error","name":"InvalidRates","inputs":[]},{"type":"error","name":"InvalidRouter","inputs":[]},{"type":"error","name":"InvalidSlippage","inputs":[]},{"type":"error","name":"InvalidState","inputs":[{"name":"currentState","type":"uint8","internalType":"uint8"}]},{"type":"error","name":"InvalidTimestampValue","inputs":[]},{"type":"error","name":"InvalidTimestamps","inputs":[]},{"type":"error","name":"InvalidVestingDuration","inputs":[]},{"type":"error","name":"InvalidVestingPercentage","inputs":[]},{"type":"error","name":"LPLockFailed","inputs":[]},{"type":"error","name":"LPLockFailedReason","inputs":[{"name":"reason","type":"string","internalType":"string"}]},{"type":"error","name":"LiquificationFailed","inputs":[]},{"type":"error","name":"LiquificationFailedReason","inputs":[{"name":"reason","type":"string","internalType":"string"}]},{"type":"error","name":"LiquificationFailedReasonBytes","inputs":[{"name":"reason","type":"bytes","internalType":"bytes"}]},{"type":"error","name":"LiquificationYieldedZeroLP","inputs":[]},{"type":"error","name":"NoFundsToRefund","inputs":[]},{"type":"error","name":"NoFundsToWithdraw","inputs":[]},{"type":"error","name":"NoTokensToClaim","inputs":[]},{"type":"error","name":"NotActive","inputs":[]},{"type":"error","name":"NotClaimable","inputs":[]},{"type":"error","name":"NotInPurchasePeriod","inputs":[]},{"type":"error","name":"NotPaused","inputs":[]},{"type":"error","name":"NotRefundable","inputs":[]},{"type":"error","name":"NotWhitelisted","inputs":[]},{"type":"error","name":"OwnableInvalidOwner","inputs":[{"name":"owner","type":"address","internalType":"address"}]},{"type":"error","name":"OwnableUnauthorizedAccount","inputs":[{"name":"account","type":"address","internalType":"address"}]},{"type":"error","name":"PairAddressZero","inputs":[]},{"type":"error","name":"PairCreationFailed","inputs":[{"name":"token","type":"address","internalType":"address"},{"name":"pairCurrency","type":"address","internalType":"address"}]},{"type":"error","name":"PresaleNotEnded","inputs":[]},{"type":"error","name":"PurchaseBelowMinimum","inputs":[]},{"type":"error","name":"PurchaseLimitExceed","inputs":[]},{"type":"error","name":"ReentrancyGuardReentrantCall","inputs":[]},{"type":"error","name":"SafeERC20FailedOperation","inputs":[{"name":"token","type":"address","internalType":"address"}]},{"type":"error","name":"SoftCapNotReached","inputs":[]},{"type":"error","name":"SoftCapTooLow","inputs":[]},{"type":"error","name":"StablecoinNotAccepted","inputs":[]},{"type":"error","name":"Unauthorized","inputs":[]},{"type":"error","name":"ZeroAmount","inputs":[]},{"type":"error","name":"ZeroDecimals","inputs":[]},{"type":"error","name":"ZeroLiquidityAmounts","inputs":[]},{"type":"error","name":"ZeroTokensForContribution","inputs":[]}],"bytecode":{"object":"0x6101806040523461053f57613708803803809161001e82610180610737565b61018039610300811261053f5761003661018061075a565b906100426101a061075a565b6102006100506101c061075a565b92605f19011261053f576040519261020084016001600160401b038111858210176107105760409081526101e051855261020051602086015261022051908501526102405160608501526102605160808501526102805160a08501526102a05160c08501526102c05160e08501526102e05161010085015261030051610120850152610320516101408501526103405161016085015261036051610180850152610380516101a08501526103a0516101c085015261010f6103c061075a565b6101e08501526101206103e061075a565b9261012c61040061075a565b61013761042061075a565b610440519290919061014a61046061075a565b946001600160a01b03881615610724575f80546001600160a01b031981166001600160a01b038b8116918217845560405193919216907f8be0079c531659141344cd1fd0a4f28419497f9722a3daafe3b4186f6b6457e09080a36001805560c081016001600160401b038111828210176107105760405261138881526117706020820152611b586040820152611f406060820152612328608082015261271060a0820152601b546006601b55806006106106b0575b50601b5f5260205f20905f5b60068110610698575050506001600160a01b038116158015610687575b8015610676575b610656576001600160a01b038316158015610665575b6106565760026101c08a015111610647576101f4851161062f576001600160a01b038616158061063e575b61062f5760208901518015908115610622575b8115610614575b5061060557608089015180159081156105f8575b81156105e9575b81156105db575b506105cc5760a089015180159081156105bf575b81156105b0575b506105a157610120890151428110908115610591575b50610582576101808901516127108111908115610565575b5061055657610160526001600160a01b03868116610100521661012081905260405163c45a015560e01b815290602090829060049082905afa90811561054b575f9161050d575b506101409081526001600160a01b03918216608090815292821660a090815260c094855260e095865288516006556020808a01516007556040808b015160085560608b0151600955948a0151600a5590890151600b5593880151600c5593870151600d55610100870151600e55610120870151600f8190559387015160108190556101608801516011556101808801516012556101a08801516013556101c08801516014556101e090970151601580546001600160a01b0319169183169190911790556016805460ff19169055815193845291830195909552918216933093909216917fdf058c371fcd1a975a9f8b29fb3823e0f4fcc990e97f681cca2bfe085eae91d991a4604051612f99908161076f8239608051818181610f960152611b4c015260a0518181816111f50152818161149b0152612918015260c0518181816116d10152611ee9015260e0518181816108c801526117bb0152610100518181816105ac015281816107b00152818161093801528181610ba3015281816114cf015281816115d8015281816118c3015281816125590152612768015261012051818181610f34015261196d015261014051818181610c9201526118f701526101605181818161188b0152611f630152f35b90506020813d602011610543575b8161052860209383610737565b8101031261053f576105399061075a565b5f61033c565b5f80fd5b3d915061051b565b6040513d5f823e3d90fd5b6329a8bc8760e11b5f5260045ffd5b9050151580610575575b5f6102f5565b506101a08901511561056f565b63d22806e360e01b5f5260045ffd5b90506101408a015111155f6102dd565b63d1107a7960e01b5f5260045ffd5b905060c08a015110155f6102c7565b60c08b01511591506102c0565b63dcac5ed360e01b5f5260045ffd5b905060208a0151105f6102ac565b80915060608b015111906102a5565b60608b015115915061029e565b63269ae9a360e01b5f5260045ffd5b905060408a0151115f61028a565b60408b0151159150610283565b6362c9b89160e11b5f5260045ffd5b50841515610270565b635ff75f6f60e11b5f5260045ffd5b63f92ee8a960e01b5f5260045ffd5b506001600160a01b03841615610245565b506001600160a01b0382161561022f565b506001600160a01b03871615610228565b600190602061ffff845116930192818501550161020b565b601b5f527f3ad8aa4f87544323a9d1e5dd902f40c356527a7955687113db5f9a85ad579dc1017f3ad8aa4f87544323a9d1e5dd902f40c356527a7955687113db5f9a85ad579dc75b81811061070557506101ff565b5f81556001016106f8565b634e487b7160e01b5f52604160045260245ffd5b631e4fbdf760e01b5f525f60045260245ffd5b601f909101601f19168101906001600160401b0382119082101761071057604052565b51906001600160a01b038216820361053f5756fe608080604052600436101561035f575b50361561001a575f80fd5b60ff600354166103505761002c612613565b60ff60165416600481101561033c576001810361032a57600f544210801561031f575b6103105733156103015760ff60035460081c1680610281575b610272576015546001600160a01b0316158015610248573415610239575b80156102325734905b601f549161009d818461237f565b60075410610223576009548110610214576100c490335f52601760205260405f205461237f565b600a541061020557156101fa576100dc34809261237f565b601f556100eb8160025461237f565b600255335f52601860205260ff60405f2054161561018d575b335f52601760205260405f2061011b82825461237f565b90556040518181527f2499a5330ab0979cc612135e7883ebc3cd5c9f7a8508f042540c34723348f63260203392a26001600160a01b03601554161560405191825260208201527f08ce00466abd322339ad31e43307a70a872f8c32a13d8b24ed85948ba75ed1b360403392a260018055005b335f52601860205260405f20600160ff19825416179055601954680100000000000000008110156101e6578060016101c8920160195561220b565b81549060031b906001600160a01b0333831b921b1916179055610104565b634e487b7160e01b5f52604160045260245ffd5b6100dc34809261237f565b639f256db560e01b5f5260045ffd5b632afb507160e21b5f5260045ffd5b631c4af3c960e11b5f5260045ffd5b349061008f565b631f2a200560e01b5f5260045ffd5b34158015610264571561008657631f2a200560e01b5f5260045ffd5b6248c6b960e61b5f5260045ffd5b630b094f2760e31b5f5260045ffd5b50601a5460405160208101906bffffffffffffffffffffffff193360601b168252601481526102b16034826123a9565b5190205f905b6060518210156102f85760808260051b0151908181105f146102e7575f52602052600160405f205b9101906102b7565b905f52602052600160405f206102df565b90501415610068565b63bc02ea9360e01b5f5260045ffd5b6338e102f160e21b5f5260045ffd5b50601054421161004f565b63683f44bb60e11b5f5260045260245ffd5b634e487b7160e01b5f52602160045260245ffd5b63ab35696f60e01b5f5260045ffd5b5f905f3560e01c9081631069143a146121495750806318e4274d1461212c57806321eff7fc14611f0c578063253da8bd1461210f5780632eb4a7ab146120f257806331f684c0146120d55780633ba86c44146120b85780633cb5d100146120775780633ccfd60b14611fe85780633f4ba83a14611f875780633fc8cef314611f4457806342e94c9014611f0c57806349d2e27714611ed25780634bb278f3146116395780634e71d92d1461137857806351fb012d14611352578063590e1ae31461123c5780635c975abb146112195780635e6f6045146111d5578063715018a6146111835780637abbc150146111035780637cb647591461107d57806380e3f1ad146110635780638456cb5914610ffe5780638da5cb5b14610fd857806391a9207b14610fba5780639759164a14610f765780639e1a4d1914610f58578063a7c6402c14610f14578063af157c1914610e4c578063af1ad48b14610d9e578063aff177ca14610d5e578063b57b92a514610d40578063bedcf00314610d22578063c19d93fb14610ce2578063c1d41e9514610cb6578063c45a015514610c72578063c5c4744c14610c54578063cc2ee19614610c2c578063cea9d26f14610ac2578063d02c880a146109fb578063d0e30db0146108ec578063d7cee31e146108a8578063e1f1c4a71461088b578063ea4a9c8514610862578063ea8a1af014610701578063ed498fa8146106d5578063f2fde38b14610642578063f7bdc4f7146105d35763fc0c546a0361000f57346105d057806003193601126105d05760206040516001600160a01b037f0000000000000000000000000000000000000000000000000000000000000000168152f35b80fd5b5060203660031901126105d05760043567ffffffffffffffff811161063e57610600903690600401612255565b60ff6003541661062f57610628916106219161061a612613565b36916123cb565b3433612aa3565b6001805580f35b63ab35696f60e01b8352600483fd5b5080fd5b50346105d05760203660031901126105d0576001600160a01b036106646121f5565b61066c6125ed565b1680156106c157815473ffffffffffffffffffffffffffffffffffffffff198116821783556001600160a01b03167f8be0079c531659141344cd1fd0a4f28419497f9722a3daafe3b4186f6b6457e08380a380f35b631e4fbdf760e01b82526004829052602482fd5b50346105d05760203660031901126105d05760206106f96106f46121f5565b61251c565b604051908152f35b50346105d057806003193601126105d05761071a612613565b6107226125ed565b60ff600354166108535760ff60165416906004821015918261083f5780151580610830575b6108085750600260ff196016541617601655601c54908161079e575b6040514281527f27f83af92b39768b17fe0c8d6922452702717efb8626d97e7a754e0b27d4f6d260203392a260018055602060405160018152f35b601c556107d581336001600160a01b037f000000000000000000000000000000000000000000000000000000000000000016612d7e565b6040519081527fbf95d20e2a316bd9c3e2efd35653a948438013277330af4b3fee49455a0e637260203392a28080610763565b60249261081e5763683f44bb60e11b8252600452fd5b50634e487b7160e01b81526021600452fd5b50915080916001811415610747565b634e487b7160e01b82526021600452602482fd5b63ab35696f60e01b8152600490fd5b50346105d05760203660031901126105d0576020610881600435612495565b6040519015158152f35b50346105d057806003193601126105d05760206040516127108152f35b50346105d057806003193601126105d05760206040516001600160a01b037f0000000000000000000000000000000000000000000000000000000000000000168152f35b50346105d057806003193601126105d0576109056125ed565b60ff600354166108535760ff60165416600481101561083f57806109e957506006549061095d8230336001600160a01b037f000000000000000000000000000000000000000000000000000000000000000016612a62565b61097e610968612d50565b80601d55610974612d5f565b9081601e5561237f565b8083106109d4576020838381601c5550600160ff19601654161760165560405181815242838201527f90890809c654f11d6e72a28fa60149770a0d11ec6c92319d6ceb2bb0a4ea1a1560403392a2604051908152f35b604492630d25268d60e01b8352600452602452fd5b63683f44bb60e11b8252600452602490fd5b50346105d057806003193601126105d057610a14612421565b50610abe604051610a248161238c565b6006548152600754602082015260085460408201526009546060820152600a546080820152600b5460a0820152600c5460c0820152600d5460e0820152600e54610100820152600f546101208201526010546101408201526011546101608201526012546101808201526013546101a08201526014546101c08201526001600160a01b03601554166101e082015260405191829182612286565b0390f35b50346105d05760603660031901126105d057610adc6121f5565b6024356001600160a01b03811691828203610c285760443590610afd6125ed565b8315610c195760ff60165416600481101580610c0557600382149182159081610bf6575b50610be757610bd35780610b98575b80610b8c575b610b7d5781610b737f77023e19c7343ad491fd706c36335ca0e738340a91f29b1fd81e2673d44896c4936001600160a01b03602094169586612d7e565b604051908152a380f35b63d64d4b7160e01b8552600485fd5b50600454421115610b36565b506001600160a01b037f0000000000000000000000000000000000000000000000000000000000000000166001600160a01b03821614610b30565b634e487b7160e01b86526021600452602486fd5b63662fcd5d60e01b8752600487fd5b9150506002879114155f610b21565b634e487b7160e01b87526021600452602487fd5b63e6c4247b60e01b8552600485fd5b8380fd5b50346105d057806003193601126105d057610abe610c48612421565b60405191829182612286565b50346105d057806003193601126105d0576020601f54604051908152f35b50346105d057806003193601126105d05760206040516001600160a01b037f0000000000000000000000000000000000000000000000000000000000000000168152f35b50346105d057806003193601126105d05760206106f9610cd4612d50565b610cdc612d5f565b9061237f565b50346105d057806003193601126105d05760ff60165416604051906004811015610d0e57602092508152f35b634e487b7160e01b83526021600452602483fd5b50346105d057806003193601126105d0576020600554604051908152f35b50346105d057806003193601126105d0576020601e54604051908152f35b50346105d05760403660031901126105d05760043567ffffffffffffffff811161063e57610d90903690600401612255565b5050610d9a612246565b5080f35b50346105d05760403660031901126105d05760043560243567ffffffffffffffff8111610e4857610dd3903690600401612255565b60ff60035416610e3957610de5612613565b6001600160a01b03601554168015610e2a578315610e1b5791610e149161061a85610628969530903390612a62565b9033612aa3565b631f2a200560e01b8552600485fd5b6306a39ded60e41b8552600485fd5b63ab35696f60e01b8452600484fd5b8280fd5b50346105d057806003193601126105d05760405180602060195491828152018091601985527f944998273e477b495144fb8794c914197f3ccb46be2900f4698fd0ef743c969590855b818110610ef55750505082610eab9103836123a9565b604051928392602084019060208552518091526040840192915b818110610ed3575050500390f35b82516001600160a01b0316845285945060209384019390920191600101610ec5565b82546001600160a01b0316845260209093019260019283019201610e95565b50346105d057806003193601126105d05760206040516001600160a01b037f0000000000000000000000000000000000000000000000000000000000000000168152f35b50346105d057806003193601126105d0576020601c54604051908152f35b50346105d057806003193601126105d05760206040516001600160a01b037f0000000000000000000000000000000000000000000000000000000000000000168152f35b50346105d057806003193601126105d0576020600254604051908152f35b50346105d057806003193601126105d0576001600160a01b036020915416604051908152f35b50346105d057806003193601126105d0576110176125ed565b60035460ff81166110545760ff1916600117600355337f62e78cea01bee320cd4e420270b5ea74000d11b0c9f74754ebdbfc544b05a2588280a280f35b631785c68160e01b8252600482fd5b50346105d05760203660031901126105d057610d9a612237565b50346105d05760203660031901126105d05760043561109a6125ed565b60ff601654166004811015610d0e57806110f1575080601a5560035461ff0082151560081b169061ff001916176003557f90004c04698bc3322499a575ed3752dd4abf33e0a7294c06a787a0fe01bea9418280a280f35b63683f44bb60e11b8352600452602482fd5b50346105d05760203660031901126105d0576004356111206125ed565b60ff601654166004811015610d0e57600381036110f15750600454811115611174576020817ff1178b3c495407dc107b27908c56bee4f47c0295055c88d6110c026737fd2eb392600455604051908152a180f35b631da7447960e21b8252600482fd5b50346105d057806003193601126105d05761119c6125ed565b806001600160a01b038154811981168355167f8be0079c531659141344cd1fd0a4f28419497f9722a3daafe3b4186f6b6457e08280a380f35b50346105d057806003193601126105d05760206040516001600160a01b037f0000000000000000000000000000000000000000000000000000000000000000168152f35b50346105d057806003193601126105d057602060ff600354166040519015158152f35b50346105d057806003193601126105d057611255612613565b60ff60165416600481101561083f5760028114908115611323575b50156113145733815260176020526040812054801561130557602091338152601783528060408120558160025410155f146112fd57506112b281600254612341565b6002555b6112c08133612633565b60405181815242838201527f73f04af9dcc582a923ec15d3eea990fe34adabfff2879e28d44572e01a54abb660403392a260018055604051908152f35b6002556112b6565b634625bdf760e01b8252600482fd5b631ba168fb60e11b8152600490fd5b600191501480611347575b8061133a575b5f611270565b50601f5460085411611334565b50601054421161132e565b50346105d057806003193601126105d057602060ff60035460081c166040519015158152f35b50346105d057806003193601126105d057611391612613565b60ff600354166108535760ff60165416600481101561083f57600381036109e95750600454421161162a576113c53361251c565b801561161c573382526017602052816040812055601c5481811061160d57816113ed91612341565b601c556113f861270a565b8181526012546020820181905280156116035761271061141a6060928561234e565b04915b61142f60408201938085528251612341565b9182910152806115c9575b5080519081611484575b60208360405181815242838201527f30c2341ba3f2142e78472f07dcf018a42044ae1c2c2e7ce867b327257f07ef2b60403392a260018055604051908152f35b60405163095ea7b360e01b81526001600160a01b037f0000000000000000000000000000000000000000000000000000000000000000811660048301819052602483019490945285927f00000000000000000000000000000000000000000000000000000000000000009091169160208160448187875af180156115be57611591575b50519260135491813b15610c2857604051631bc6452160e31b81523060048201523360248201526001600160a01b03919091166044820152606481019490945242608485015260a4840191909152829060c490829084905af1801561158657611571575b80611444565b61157c8380926123a9565b61063e578161156b565b6040513d85823e3d90fd5b6115b29060203d6020116115b7575b6115aa81836123a9565b8101906126f2565b611507565b503d6115a0565b6040513d86823e3d90fd5b6115fd90336001600160a01b037f000000000000000000000000000000000000000000000000000000000000000016612d7e565b5f61143a565b506060839161141d565b637222ae5760e11b8352600483fd5b62f3f86160e41b8252600482fd5b632253b77960e01b8152600490fd5b5034611c95575f366003190112611c95576116526125ed565b60ff6003541661035057611664612613565b60ff60165416600481101561033c576001810361032a5750601054421115611ec357601f5460085411611eb457600360ff1960165416176016556127106116b0601f54600d549061234e565b048015908115806117f3575b506117199150612710611712601f54826116f77f0000000000000000000000000000000000000000000000000000000000000000809361234e565b048061178e575b5061170c601f549485612341565b9361234e565b0490612341565b60055562ed4e0042019081421161177a575060045561173661273f565b601f546040519081524260208201527f616c9469db50815ae0f1d0a020d9fc9060da7c57f03559afb0d4ebdaa0a3a05e60403392a260018055602060405160018152f35b634e487b7160e01b81526011600452602490fd5b7f0f5237766fb8b2313e23d359023b2fe32aa11ff9048495b861341a994d9114bc60206001600160a01b037f00000000000000000000000000000000000000000000000000000000000000006117e48582612633565b6040519485521692a25f6116fe565b601e549290611eac575b611e9d5760405160c0810181811067ffffffffffffffff8211176101e6576040526020810160408201915f835260608101905f825260808101935f855260a08201965f8852868352808552600e5461271003906127108211611d4c5761187261271061186a84829461234e565b04928961234e565b04845281526015546001600160a01b031680611e9757507f0000000000000000000000000000000000000000000000000000000000000000935b60405163e6a4390560e01b81526001600160a01b037f0000000000000000000000000000000000000000000000000000000000000000811660048301819052878216602484015296907f000000000000000000000000000000000000000000000000000000000000000016602083604481845afa928315611cb6575f93611e76575b506001600160a01b03831615611dc0575b50506001600160a01b0316938415611db157938652805160405163095ea7b360e01b81526001600160a01b037f0000000000000000000000000000000000000000000000000000000000000000166004820181905260248201929092529490936020866044815f8b5af1958615611cb657602496611d94575b5060206001600160a01b03895116604051978880926370a0823160e01b82523060048301525afa958615611cb6575f96611d60575b505191519251905192610258420190814211611d4c5760609360c492604051968795869463f305d71960e01b86528c600487015260248601526044850152606484015230608484015260a4830152865af19081611d21575b50611aa057611a52612e56565b6308c379a014611a6c575b6376d097f360e11b5f5260045ffd5b611a74612e71565b80611a7f5750611a5d565b604051633c10bbab60e11b8152908190611a9c9060048301612ee5565b0390fd5b5f926044602092604051958693849263095ea7b360e01b845260048401528160248401525af1918215611cb657602492611d04575b5060206001600160a01b03845116604051938480926370a0823160e01b82523060048301525afa8015611cb6575f90611cd0575b611b139250612341565b80845215611cc1576001600160a01b03905116915191611b356011544261237f565b60405163095ea7b360e01b81526001600160a01b037f0000000000000000000000000000000000000000000000000000000000000000166004820181905260248201869052919491906020816044815f885af18015611cb657611c99575b506001600160a01b035f5416813b15611c95575f9160848392604051948593849263042964f560e11b84528960048501528860248501528b604485015260648401525af19081611c80575b50611c365784611bec612e56565b6308c379a014611c06575b63a14cffc560e01b8152600490fd5b611c0e612e71565b80611c195750611bf7565b604051630822993160e31b8152908190611a9c9060048301612ee5565b60407fac1d76749e5447b7b16f5ab61447e1bd502f3bb4807af3b28e620d1700a6ee45916117199582519182526020820152a2611c77601e54601c54612341565b601c555f6116bc565b611c8d9196505f906123a9565b5f945f611bde565b5f80fd5b611cb19060203d6020116115b7576115aa81836123a9565b611b93565b6040513d5f823e3d90fd5b630bdc07d160e21b5f5260045ffd5b506020823d602011611cfc575b81611cea602093836123a9565b81010312611c9557611b139151611b09565b3d9150611cdd565b611d1c9060203d6020116115b7576115aa81836123a9565b611ad5565b606090813d8311611d45575b611d3781836123a9565b81010312611c95575f611a45565b503d611d2d565b634e487b7160e01b5f52601160045260245ffd5b9095506020813d602011611d8c575b81611d7c602093836123a9565b81010312611c955751945f6119ed565b3d9150611d6f565b611dac9060203d6020116115b7576115aa81836123a9565b6119b8565b63284dbaed60e01b5f5260045ffd5b6040516364e329cb60e11b81526001600160a01b03898116600483015283166024820152919a97999798969594939250602090829060449082905f905af15f9181611e45575b50611e2b576001600160a01b038a8a634fe1e92b60e11b5f526004521660245260445ffd5b6001600160a01b039192939495979950979597905f61193f565b611e6891925060203d602011611e6f575b611e6081836123a9565b810190612e37565b905f611e06565b503d611e56565b611e9091935060203d602011611e6f57611e6081836123a9565b915f61192e565b936118ac565b63d69ebc4560e01b5f5260045ffd5b5081156117fd565b632bdc91ad60e01b5f5260045ffd5b63dfc7e2e560e01b5f5260045ffd5b34611c95575f366003190112611c955760206040517f00000000000000000000000000000000000000000000000000000000000000008152f35b34611c95576020366003190112611c95576001600160a01b03611f2d6121f5565b165f526017602052602060405f2054604051908152f35b34611c95575f366003190112611c955760206040516001600160a01b037f0000000000000000000000000000000000000000000000000000000000000000168152f35b34611c95575f366003190112611c9557611f9f6125ed565b60035460ff811615611fd95760ff1916600355337f5db9ee0a495bf2e6ff9c91a7834c1ba4fdd244a5e8aa4e537bd38aeae4b073aa5f80a2005b636cd6020160e01b5f5260045ffd5b34611c95575f366003190112611c95576120006125ed565b612008612613565b60ff60165416600481101561033c576003810361032a576005548015612068575f6005556120368133612633565b6040519081527f7084f5476618d8e60b11ef0d7d3f06914655adb8793e28ff7f018d4c76d505d560203392a260018055005b6367e3990d60e01b5f5260045ffd5b34611c95576020366003190112611c9557600435601954811015611c95576001600160a01b036120a860209261220b565b90549060031b1c16604051908152f35b34611c95575f366003190112611c95576020600454604051908152f35b34611c95575f366003190112611c95576020601d54604051908152f35b34611c95575f366003190112611c95576020601a54604051908152f35b34611c95575f366003190112611c95576020601954604051908152f35b34611c95575f366003190112611c95576020601f54604051908152f35b34611c95575f366003190112611c9557600654600754600854600954600a54600b54600c54600d54600e5490600f54926010549460115496601254988d6013549b6014549d6015546001600160a01b03169f8352602083015260408201526060015260808d015260a08c015260c08b015260e08a01526101008901526101208801526101408701526101608601526101808501526101a08401526101c08301526101e082015261020090f35b600435906001600160a01b0382168203611c9557565b6019548110156122235760195f5260205f2001905f90565b634e487b7160e01b5f52603260045260245ffd5b600435908115158203611c9557565b602435908115158203611c9557565b9181601f84011215611c955782359167ffffffffffffffff8311611c95576020808501948460051b010111611c9557565b9190916101e06001600160a01b0381610200840195805185526020810151602086015260408101516040860152606081015160608601526080810151608086015260a081015160a086015260c081015160c086015260e081015160e08601526101008101516101008601526101208101516101208601526101408101516101408601526101608101516101608601526101808101516101808601526101a08101516101a08601526101c08101516101c0860152015116910152565b91908203918211611d4c57565b81810292918115918404141715611d4c57565b811561236b570490565b634e487b7160e01b5f52601260045260245ffd5b91908201809211611d4c57565b610200810190811067ffffffffffffffff8211176101e657604052565b90601f8019910116810190811067ffffffffffffffff8211176101e657604052565b9291909267ffffffffffffffff84116101e6578360051b9060206040516123f4828501826123a9565b8096815201918101928311611c9557905b82821061241157505050565b8135815260209182019101612405565b6040519061242e8261238c565b5f6101e0838281528260208201528260408201528260608201528260808201528260a08201528260c08201528260e08201528261010082015282610120820152826101408201528261016082015282610180820152826101a0820152826101c08201520152565b601b5490815f5b8381106124ab57505050505f90565b8181101561222357601b5f527f3ad8aa4f87544323a9d1e5dd902f40c356527a7955687113db5f9a85ad579dc181015483146124e95760010161249c565b50505050600190565b90816020910312611c95575160ff81168103611c955790565b60ff16604d8111611d4c57600a0a90565b6001600160a01b03165f52601760205260405f205480156125e857600b546125439161234e565b60405163313ce56760e01b8152906020826004817f00000000000000000000000000000000000000000000000000000000000000006001600160a01b03165afa908115611cb6576125a26125a8926125b6945f916125b9575b5061250b565b9061234e565b6125b0612dba565b90612361565b90565b6125db915060203d6020116125e1575b6125d381836123a9565b8101906124f2565b5f61259c565b503d6125c9565b505f90565b6001600160a01b035f5416330361260057565b63118cdaa760e01b5f523360045260245ffd5b600260015414612624576002600155565b633ee5aeb560e01b5f5260045ffd5b81156126ee576015546001600160a01b0316806126e157508147106126ca575f8080936001600160a01b038294165af13d156126c2573d9067ffffffffffffffff82116101e65760405191612692601f8201601f1916602001846123a9565b82523d5f602084013e5b156126a45750565b8051156126b357805190602001fd5b63d6bda27560e01b5f5260045ffd5b60609061269c565b504763cf47918160e01b5f5260045260245260445ffd5b906126ec9291612d7e565b565b5050565b90816020910312611c9557518015158103611c955790565b604051906080820182811067ffffffffffffffff8211176101e6576040525f6060838281528260208201528260408201520152565b61274761270a565b601f54906127595f92600b549061234e565b60405163313ce56760e01b81527f00000000000000000000000000000000000000000000000000000000000000006001600160a01b031691602082600481865afa908115611cb6576125a26125a8926127b8945f916125b9575061250b565b808352601d54809111612a5a575b6127d1835182612341565b6020840190815260606128226127ea601e54809561237f565b92601c54948486956127fc838861237f565b1115612a515761280f612814928761237f565b612341565b905b8160408901525161237f565b94019380855211612a49575b82518015612a425761283f91612341565b601c556014548061289557506001600160a01b037fbf95d20e2a316bd9c3e2efd35653a948438013277330af4b3fee49455a0e63729261288760209383875416835191612d7e565b5193541692604051908152a2565b6001036128ff57906128f57fa23a441fdb6a3236d37796809dafdaba773a27be440ae9746e9b9f8cf2c2106e9360209383516040519263a9059cbb60e01b8785015260248401526044830152604482526128f06064836123a9565b612f0f565b51604051908152a1565b815160405163095ea7b360e01b81526001600160a01b037f0000000000000000000000000000000000000000000000000000000000000000166004820181905260248201929092529091906020816044815f865af18015611cb657612a25575b506001600160a01b035f541683519260135493813b15611c9557604051631bc6452160e31b81523060048201526001600160a01b039384166024820152939092166044840152606483019190915242608483015260a4820192909252905f90829060c490829084905af18015611cb657612a0f575b5060206001600160a01b037fffbab51a97c2620266485de4ca0e9acd7a3e7412812e256ff5d6831fa5dacaa9925193541692604051908152a2565b612a1c9192505f906123a9565b5f9060206129d4565b612a3d9060203d6020116115b7576115aa81836123a9565b61295f565b5050505050565b80835261282e565b50505f90612816565b8083526127c6565b9091926001600160a01b036126ec9481604051956323b872dd60e01b60208801521660248601521660448401526064830152606482526128f06084836123a9565b60ff60165416600481101561033c576001810361032a5750600f5442108015612d45575b610310576001600160a01b0381169283156103015760ff60035460081c169182612cb7575b5050610272576015546001600160a01b031615908115612c9e573415610239575b8115612c975734915b601f5492612b24818561237f565b6007541061022357600954811061021457612b4b90855f52601760205260405f205461237f565b600a54106102055715612c8c5750612b6434809261237f565b601f55612b738160025461237f565b600255815f52601860205260ff60405f20541615612c0c575b60407f08ce00466abd322339ad31e43307a70a872f8c32a13d8b24ed85948ba75ed1b391835f526017602052815f20612bc682825461237f565b9055837f2499a5330ab0979cc612135e7883ebc3cd5c9f7a8508f042540c34723348f63260208451848152a26001600160a01b03601554161582519182526020820152a2565b815f52601860205260405f20600160ff19825416179055601954680100000000000000008110156101e6577f08ce00466abd322339ad31e43307a70a872f8c32a13d8b24ed85948ba75ed1b391612c6b8260016040940160195561220b565b81549060031b906001600160a01b0387831b921b1916179055915050612b8c565b612b6490809261237f565b8091612b16565b346102645780612b0d57631f2a200560e01b5f5260045ffd5b9390949150601a549360405160208101916bffffffffffffffffffffffff199060601b16825260148152612cec6034826123a9565b519020925f935b8651851015612d355760208560051b88010151908181105f14612d24575f52602052600160405f205b940193612cf3565b905f52602052600160405f20612d1c565b9194929550925014155f80612aec565b506010544211612ac7565b612543600754600b549061234e565b612543612710612d74600754600d549061234e565b04600c549061234e565b60405163a9059cbb60e01b60208201526001600160a01b039290921660248301526044808301939093529181526126ec916128f06064836123a9565b6001600160a01b03601554168015612e2a5760206004916040519283809263313ce56760e01b82525afa5f9181612e09575b50612e0057631da50fef60e01b5f5260045ffd5b6125b69061250b565b612e2391925060203d6020116125e1576125d381836123a9565b905f612dec565b50670de0b6b3a764000090565b90816020910312611c9557516001600160a01b0381168103611c955790565b5f9060033d11612e6257565b905060045f803e5f5160e01c90565b5f60443d106125b6576040513d600319016004823e8051913d602484011167ffffffffffffffff841117612edf578282019283519167ffffffffffffffff8311612ed7573d84016003190185840160200111612ed757506125b6929101602001906123a9565b949350505050565b92915050565b602060409281835280519182918282860152018484015e5f828201840152601f01601f1916010190565b905f602091828151910182855af115611cb6575f513d612f5a57506001600160a01b0381163b155b612f3e5750565b6001600160a01b0390635274afe760e01b5f521660045260245ffd5b60011415612f3756fea26469706673582212204c6842166165813c798d267e9272115b192d11a4c240aa80ced6a90620a59c7764736f6c634300081c0033","linkReferences":{}},"methodIdentifiers":{"BASIS_POINTS()":"e1f1c4a7","calculateTotalTokensNeeded()":"c1d41e95","cancel()":"ea8a1af0","claim()":"4e71d92d","claimDeadline()":"3ba86c44","contribute(bytes32[])":"f7bdc4f7","contributeStablecoin(uint256,bytes32[])":"af1ad48b","contributions(address)":"42e94c90","contributors(uint256)":"3cb5d100","deposit()":"d0e30db0","extendClaimDeadline(uint256)":"7abbc150","factory()":"c45a0155","finalize()":"4bb278f3","getContribution(address)":"21eff7fc","getContributorCount()":"253da8bd","getContributors()":"af157c19","getOptions()":"cc2ee196","getPresaleOptions()":"d02c880a","getTotalContributed()":"18e4274d","houseAddress()":"d7cee31e","housePercentage()":"49d2e277","isAllowedLiquidityBps(uint256)":"ea4a9c85","liquidityLocker()":"9759164a","merkleRoot()":"2eb4a7ab","options()":"1069143a","owner()":"8da5cb5b","ownerBalance()":"bedcf003","pause()":"8456cb59","paused()":"5c975abb","refund()":"590e1ae3","renounceOwnership()":"715018a6","rescueTokens(address,address,uint256)":"cea9d26f","setMerkleRoot(bytes32)":"7cb64759","state()":"c19d93fb","toggleWhitelist(bool)":"80e3f1ad","token()":"fc0c546a","tokenBalance()":"9e1a4d19","tokensClaimable()":"31f684c0","tokensLiquidity()":"b57b92a5","totalRaised()":"c5c4744c","totalRefundable()":"91a9207b","transferOwnership(address)":"f2fde38b","uniswapV2Router02()":"a7c6402c","unpause()":"3f4ba83a","updateWhitelist(address[],bool)":"aff177ca","userTokens(address)":"ed498fa8","vestingContract()":"5e6f6045","weth()":"3fc8cef3","whitelistEnabled()":"51fb012d","withdraw()":"3ccfd60b"},"id":43}